:100000000C94D7020C941E030C941E030C941E0334
:100010000C941E030C941E030C941E030C941E03DC
:100020000C941E030C941E030C9450200C940C2072
:100030000C9496270C941E030C941E030C941E0320
:100040000C941E030C941E030C941E030C941E03AC
:100050000C941E030C9472270C941E030C941E0324
:100060000C941E030C941E030C941E030C941E038C
:100070000C941E030C941E030C941E030C941E037C
:100080000C941E030C941E030C941E030C941E036C
:100090000C941E030C941E030C941E030C941E035C
:1000A0000C941E030C941E030C941E030011AAFF53
:1000B000FFFF00000000001155FFFFFF00000000DF
:1000C000001100FFFFFF0000000000010000FFFF23
:1000D0000000000005010902A10185020901A1003B
:1000E00005091901290515002501950575018102EC
:1000F0009501750381010501093009311581257FBD
:1001000095027508810609381581257F95017508C6
:100110008106050C0A38021581257F950175088135
:1001200006C0C005010980A101850319012AB70095
:10013000150126B700950175108100C0050C090155
:10014000A101850419012AA002150126A00295012A
:1001500075108100C005010906A101850505071973
:10016000E029E715002501950875018102050719A9
:100170000029EF1500250195F07501810205081988
:10018000012905950575019102950175039101C03D
:100190000660FF0961A1010962150026FF00952094
:1001A000750881020963150026FF009520750891E6
:1001B00002C005010906A101050719E029E715009C
:1001C00025019508750181029501750881010507D2
:1001D000190029FF150026FF009506750881000506
:1001E000081901290595057501910295017503917D
:1001F00001C000010101010101010101020202022D
:1002000002020202020303030303030303040404C0
:100210000404040405050505050606060606070789
:1002200007070708080808090909090A0A0A0B0B41
:100230000B0C0C0C0D0D0D0E0E0E0F0F0F101011E0
:100240001111121213131414151516161717181866
:1002500019191A1A1B1B1C1D1D1E1E1F20202122CE
:1002600022232424252626272829292A2B2C2D2D14
:100270002E2F30313232333435363738393A3B3C31
:100280003D3E3F404142434445464748494A4C4D24
:100290004E4F50515354555658595A5B5D5E5F61ED
:1002A0006264656668696B6C6D6F70727375777880
:1002B0007A7B7D7E8082838587888A8C8E8F9193DE
:1002C0009596989A9C9EA0A2A3A5A7A9ABADAFB105
:1002D000B3B5B7BABCBEC0C2C4C6C9CBCDCFD1D4EA
:1002E000D6D8DBDDDFE2E4E7E9EBEEF0F3F5F8FA90
:1002F000FDFFFFAA7F55402223252628292A2C2DE1
:100300002F3032333536383A3B3D3E404243454745
:10031000494A4C4E5051535557595A5C5E6062647D
:100320006668696B6D6F71737577797B7D7F81838B
:100330008587898A8C8E90929496989A9C9E9FA18C
:10034000A3A5A7A8AAACAEAFB1B3B4B6B8B9BBBCAD
:10035000BEBFC1C2C3C5C6C7C9CACBCCCDCED0D122
:10036000D2D2D3D4D5D6D7D7D8D9D9DADADBDBDB1A
:10037000DCDCDCDCDCDDDDDDDDDCDCDCDCDCDBDBBB
:10038000DBDADAD9D9D8D7D7D6D5D4D3D2D2D1D00F
:10039000CECDCCCBCAC9C7C6C5C3C2C1BFBEBCBB0C
:1003A000B9B8B6B4B3B1AFAEACAAA8A7A5A3A19F84
:1003B0009E9C9A98969492908E8C8A898785838148
:1003C0007F7D7B79777573716F6D6B696866646229
:1003D000605E5C5A5957555351504E4C4A494745F7
:1003E0004342403E3D3B3A3836353332302F2D2C98
:1003F0002A292826252322AA000151A900000053FA
:10040000005400550056005F006000610057005C1A
:10041000005D005E00000059005A005B0058006259
:10042000000000630000000400010005000000C29D
:100430005CC35CCA5CC95C010001000100010001F1
:1004400000010001000000010001000100010001A5
:10045000000000010000000000000000000000009B
:1004600000000000000000000000007E0F00D4FF2C
:10047000FFFFC70000007800000000000000002A15
:100480002B28000000000000000000000000000019
:10049000000029000000002C1E34202122243426D4
:1004A00027252E362D3738271E1F202122232425CD
:1004B000263333362E37381F0405060708090A0B82
:1004C0000C0D0E0F101112131415161718191A1BF4
:1004D0001C1D2F3130232D350405060708090A0B92
:1004E0000C0D0E0F101112131415161718191A1BD4
:1004F0001C1D2F3130354CCA00C000B600AC0000C6
:100500000032190A00047F3F1F64321464321478E9
:100510003C1E1E140A0509025B00030100A0FA0933
:100520000400000103010100092111010001224022
:10053000000705810308000A090401000203000006
:100540000009211101000122220007058203200079
:100550000107050303200001090402000103000054
:100560000009211101000122BC00070584032000BD
:100570000A12011001000000084B411500010001A2
:100580000203010403300000000A0350005300314D
:1005900000370000001203410074006C0061006E1F
:1005A00000740069007300000004030904001124B2
:1005B0001FBECFEFDAE0DEBFCDBF04B603FE27C01B
:1005C0008091840390918503A0918603B091870365
:1005D0008730904BA740B04BD1F410928403109217
:1005E0008503109286031092870314BE84B7877F19
:1005F00084BF0FB6F894A8958091600088618093BD
:100600006000109260000FBEE0E0F8E3099523E07F
:10061000A2EAB1E001C01D92A438B207E1F711E0EF
:10062000A0E0B1E0ECEEF2E502C005900D92A23A36
:10063000B107D9F70E943E210C9429290C9400009F
:10064000E8EDF0E080818E7F80831092E2001092CE
:10065000DA001092E100A0EEB0E08C9181608C9302
:1006600080818F77808319BCA7EDB0E08C918E7F5D
:100670008C9380818F7E808310924A03089520910D
:10068000E4003091E50095E6A9012091EC00822F6D
:10069000817020FF06C08091E80080FF06C080E0E6
:1006A00008952091E80022FD1AC080917F038823DD
:1006B00089F0853089F08091EB0085FD0FC0209195
:1006C000E4003091E50042175307F9F29150E1F64A
:1006D00084E0089582E0089583E0089581E008951C
:1006E000EF92FF920F931F93CF937C018B010E9497
:1006F0003F03C82F811117C08091E80085FD0BC012
:100700008091E8008E778093E8000E943F03882361
:1007100099F3C82F08C0F70181917F018093F10000
:100720000150110949F78C2FCF911F910F91FF9024
:10073000EF900895CF93FC0180917F03843001F501
:10074000C091E900CF702091EC00922F917020FDB4
:1007500090E8C92B82E08093E9008091E80080FF57
:100760000CC050E040E060E270E0CF010E947003F6
:100770008091E8008E778093E800CF70C093E90005
:10078000CF9108958091770387FF13C08091E8008F
:1007900082FF06C08091E8008B778093E80004C058
:1007A00080917F038111F2CF089580917F03882388
:1007B000D9F38091E80080FFF8CF8091E8008E7730
:1007C000ECCF982F9093E900242F762F50E08917D3
:1007D00031F07091EC002091ED005091F00021FD7E
:1007E00007C09F5F973071F78093E90081E008951B
:1007F0003091EB003E7F3093EB003091ED003D7F78
:100800003093ED003091EB0031603093EB0070934A
:10081000EC002093ED005093F0002091EE0027FDB6
:10082000E0CF80E00895CF92DF92EF92FF920F9396
:100830001F93CF93DF93C8EDD0E088818F7E8883AC
:10084000E7EDF0E080818160808384E082BF81E019
:1008500080934A0388818E7F888302EE10E0F8013E
:1008600010821092DA0081EEC82ED12CF60110828F
:1008700088818F77888388818068888388818F7D4D
:10088000888319BC10927F0310927603109275032F
:100890001092740390EEE92EF12CF70180818B7F8A
:1008A000808388818160888342E060E080E00E94EC
:1008B000E103F60180818E7F8083F8018081816071
:1008C0008083808188608083F70180818E7F808330
:1008D000888180618883DF91CF911F910F91FF9074
:1008E000EF90DF90CF900895FC0180917D0390916F
:1008F0007E0386179707A0F06115710529F4909182
:10090000E8009E779093E80090E06115710551F43E
:10091000911108C08091E80082FF34C080E0089502
:10092000BC01F2CF80917F038823C1F18530C1F1F2
:100930008091E80083FD30C08091E80082FDEACF1D
:100940008091E80080FFE1CF8091F3002091F200D8
:10095000382F6115710519F02830310558F091E0F4
:100960002830310509F090E02091E8002E7720939F
:10097000E800CBCF81918093F100615071092F5F26
:100980003F4FE7CF80917F03882341F0853041F0CE
:100990008091E80083FFBECF81E0089582E0089552
:1009A00083E0089580917F03843011F482E00895FC
:1009B00081E0089508958091530308959091310343
:1009C000803F41F48091320387FD109232039923D6
:1009D00071F00895813F29F4809132031816ACF329
:1009E000F6CF823F81F497FFF2CF109231038091CE
:1009F000320390913303892B90913403892B49F76B
:100A000010922C030895833F19F4191674F3DFCF65
:100A1000893F39F4809133031816CCF610923303D2
:100A2000D6CF8A3F29F48091330387FFD0CFF6CF0A
:100A30008B3F39F48091340387FFC9CF1092340380
:100A4000C6CF8C3F29F4809134031816BCF3BFCF76
:100A5000843F31F4809130038E7F80933003B7CF91
:100A6000853F21F4809130038D7FF7CF863F21F4BD
:100A7000809130038B7FF1CF873F21F48091300349
:100A8000877FEBCF883F21F4809130038F7EE5CFC5
:100A90008D3F31F4809110038E7F8093100397CFA8
:100AA0008E3F21F4809110038D7FF7CF8F3F09F0A7
:100AB0008ECF809110038B7FF0CF8091100380FD4B
:100AC00016C081FD16C082FD16C080912C038823BC
:100AD000A1F0883280F428E0829FC001112468E2EE
:100AE00070E00E94EB27862F672B39F0089582E093
:100AF000089584E0089588E0089581E00895809144
:100B0000100380FD14C081FD14C082FD16C08091C9
:100B10002C03882381F0843180F422E3829FC0017A
:100B2000112464E170E00E94EB27862F08958CE089
:100B3000089589E1089585E0089582E30895803F4E
:100B400031F40E947F058195809332030895813F9F
:100B500019F40E947F05F8CF823F31F40E947F058F
:100B60008195809331030895833F19F40E947F0596
:100B7000F8CF893F29F40E945D05809333030895DF
:100B80008A3F21F40E945D058195F7CF8B3F31F4B8
:100B90000E945D0581958093340308958C3F19F47C
:100BA0000E945D05F8CF843F31F48091300381606D
:100BB000809330030895853F21F480913003826053
:100BC000F7CF863F21F4809130038460F1CF873FD7
:100BD00021F4809130038860EBCF883F21F480912D
:100BE00030038061E5CF8D3F31F480911003816047
:100BF0008093100308958E3F21F48091100382604A
:100C0000F7CF8F3FB9F7809110038460F1CF9C013B
:100C10004FB7F8948091460390914703A091480301
:100C2000B09149034FBF821B930B08952FB7F894DF
:100C30008091460390914703A0914803B0914903E6
:100C40002FBF0895E0911C03F0911D03309749F0E8
:100C500082E080932F030480F581E02D8FE293E002
:100C600009950E94160690932B0380932A030895FA
:100C700080910B03811110920B03089580910A0358
:100C800090910903892B90910803892B8093A201ED
:100C900090910B039923A1F0892B8093A20180915D
:100CA0001B01882341F180911A0387FF24C08EE144
:100CB000E4EAF1E090E0815000F591110E943806DD
:100CC000E0911C03F0911D033097E1F080911B012E
:100CD000882359F080911A0387FF07C08091A201F1
:100CE0008093A30185E08093A2010280F381E02D2F
:100CF00082EA91E0099486E0DBCF21912223D9F2A8
:100D00009F5FD9CF089590911B019923D1F09091C5
:100D10001A0397FF16C0E82FE695E695E695EE31A3
:100D2000E0F4F0E0EE55FE4F282F277081E090E0D0
:100D300001C0880F2A95EAF78095928189238283E2
:100D40000895E4EAF1E09191891303C0DF0111975E
:100D50001C9291E0EA3AF907B1F7089590911B01CE
:100D60009923C1F090911A0397FF14C0E82FE695DC
:100D7000E695E695EE31F8F4F0E0EE55FE4F87701B
:100D800021E030E001C0220F8A95EAF78281822BB0
:100D900082830895A4EAB1E0EFEF90E02D918217ED
:100DA00051F0EF3F19F4211101C0E92F9F5F9630F8
:100DB000A9F7EF3F09F408950E2E000CFF0BEE5536
:100DC000FE4FE6CF990F990F890F982F9770869550
:100DD0008695869525E0829FF0011124E850FD4F0D
:100DE00050E040E080E0219130E0092E02C03695CD
:100DF00027950A94E2F721703327042E01C0220FB1
:100E00000A94EAF7822B4F5F5F4F4530510559F73F
:100E10000895990F990F890F982F977041E001C09D
:100E2000440F9A95EAF786958695869595E0899F71
:100E3000F0011124E850FD4F30E020E070E05191C6
:100E4000DF011197CB01022E02C0969587950A9477
:100E5000E2F7817081958527842385278C932F5F06
:100E60003F4F2530310559F708958091F702909151
:100E7000C602981301C008958F5F8770FACF882348
:100E800041F0809590910A03892380930A030C9482
:100E90003E060895882339F090910A03982B909389
:100EA0000A030C943E0608952091BC023091BD02C5
:100EB0002817390771F09093BD028093BC02E0912E
:100EC0001C03F0911D03309721F00084F185E02D83
:100ED000099408952091BA023091BB02281739076E
:100EE00071F09093BB028093BA02E0911C03F091E1
:100EF0001D03309721F00680F781E02D09940895B5
:100F000010920903109208030E943E0686E0EFE269
:100F1000F3E0DF011D928A95E9F710922C031092FD
:100F200010030E94220690E080E00E946A0790E091
:100F300080E00C94540760930C0370930D0380932E
:100F40000E0390930F030C948007E0911C03F09123
:100F50001D03309721F00190F081E02D099480E08D
:100F60000895882309F459C0823871F40E94A507B6
:100F700081FF53C089E30E94AE060E943E0689E3CA
:100F80000E9483060C943E06833859F40E94A507FC
:100F900080FF43C083E50E94AE060E943E0683E5C3
:100FA000EFCF843859F40E94A50782FF36C087E44A
:100FB0000E94AE060E943E0687E4E2CF9CEF980FA7
:100FC000913AF0F290E2980F983088F4877021E01F
:100FD00030E0A90102C0440F551F8A95E2F7CA010B
:100FE000809590910A03892380930A03CBCF9BE5D8
:100FF000980F933020F490E080E00C946A0798E515
:10100000980F973120F490E080E00C945407803FD3
:1010100020F00E94DE040C9422060895FA0181114A
:1010200001C0FB01099480914B03982F9E7F61F4CE
:101030008170826080934B0380914E03893C18F04D
:1010400088EC80934E0308958635B0F381708465F3
:10105000F1CFAF92BF92DF92EF92FF920F931F9367
:10106000CF93DF93182F062FE901493C08F048EC95
:10107000E42FF0E0EE50FE4F011110C0E4915E2F1E
:101080004E2F4983E8835A83DF91CF911F910F91AF
:10109000FF90EF90DF90BF90AF900895202F30E049
:1010A0004491D42EE42EF12C56E0159FC00111245A
:1010B000EFEFF0E0BF010E94D727812F90E0880F6B
:1010C000991F55E5569FD001579FB00D11248A1BDB
:1010D0009B0B982F990F890F5F01A21AB30AAE9C40
:1010E000D001AF9CB00DBE9CB00D11245B2F089FAA
:1010F00080011124012F11275F01A01AB10AAE9CB3
:101100008001AF9C100DBE9C100D11245F01A81A28
:10111000B108A29EC001A39E900DB29E900D112415
:10112000892F9927E81BF90BEE9DC001EF9D900DCB
:10113000FE9D900D1124E92F62307105A1F050F44D
:101140006115710509F49DCF6130710581F0EB2FB8
:10115000512F97CF6430710569F080F066307105CA
:1011600009F48FCFF4CFE42F4B2F592F8ACFE42FE0
:10117000412F87CFEB2F542F492F83CF4B2F5D2D3E
:10118000E12F7FCF90911A0392FF06C0282F28717C
:101190002830F9F4877F846093FF06C0282F2871D8
:1011A0002831F1F4877E846120911B0320FF06C063
:1011B000382F38713830D9F4877F816021FF06C01D
:1011C000282F28712831D1F4877E816194FD877E94
:1011D0000895282F24712430F9F68B7F8860DCCFA6
:1011E000282F2471243101F78B7E8861DDCF382FC1
:1011F0003171313019F78E7F8860E0CF282F21714F
:10120000213121F78E7E8861E1CFCF93DF9300D02B
:101210000F92CDB7DEB790917F03943011F589839B
:101220007B836A839093E9008FEF9091E80081506F
:1012300095FD06C095ED9A95F1F700008111F5CF67
:101240008091E80085FF0DC050E040E063E070E071
:10125000CE0101960E9470038091E8008E77809302
:10126000E8000F900F900F90DF91CF910895CF93EA
:10127000DF93EC010E94D204823011F0843031F40B
:10128000BE0184E0DF91CF910C940509DF91CF91ED
:101290000895BC0183E00C940509CF93DF93EC0122
:1012A0000E94D204823011F08430F9F484E08093FB
:1012B000E9008FEF9091E800815095FD06C095ED13
:1012C0009A95F1F700008111F5CF8091E80085FF34
:1012D0000CC050E040E066E070E0CE010E94700378
:1012E0008091E8008E778093E800DF91CF91089598
:1012F000CF93DF93EC010E94D204823011F084304E
:10130000B9F580911B018823B1F180911A0387FF01
:1013100032C060E284E08093E9008FEF9091E800B2
:10132000815095FD06C095ED9A95F1F70000811169
:10133000F5CF8091E80085FF1BC080911B0170E014
:1013400050E040E0811104C050E040E068E070E00F
:10135000CE010E9470038091E8008E778093E800B0
:1013600080E2FE01A4E5B3E001900D928A95E1F7D9
:10137000DF91CF91089568E081E0CDCF81E0809347
:10138000E00080E28093D8001092C9008FE19EE4D3
:101390000197F1F700C0000087E090EBDC0180933B
:1013A000840390938503A0938603B093870388E119
:1013B0009CE00FB6F894A895809360000FBE9093C0
:1013C0006000FFCFCF93C82F882309F4AEC08238C6
:1013D000C1F40E94A50781FDA8C089E30E94AE0662
:1013E0000E943E062FEF81EE94E021508040904015
:1013F000E1F700C0000089E30E948306CF910C94BE
:101400003E068338A1F40E94A50780FD8EC083E5C7
:101410000E94AE060E943E062FEF81EE94E021501E
:1014200080409040E1F700C0000083E5E5CF8438BC
:10143000A1F40E94A50782FD78C087E40E94AE0651
:101440000E943E062FEF81EE94E0215080409040B4
:10145000E1F700C0000087E4CFCF8CEF8C0F813A1A
:1014600088F580911B01882301F180911A0387FF81
:101470001CC0EC2FE695E695E695F0E0EE55FE4FA4
:10148000828190E04C2F477021E030E002C0220FB3
:10149000331F4A95E2F782239323892B79F08C2F0F
:1014A0000E9483060E943E0609C0E4EAF1E08191B1
:1014B000C817A9F321E0EA3AF207C9F78C2F0E9476
:1014C000AE069CCF80E28C0F883068F4C77021E0B4
:1014D00030E001C0220FCA95EAF780910A03822BFF
:1014E00080930A038BCFEBE5EC0FE33040F4F0E0A0
:1014F000E95BFE4F808190E0CF910C946A07E8E5AC
:10150000EC0FE73150F4F0E0EE0FFF1FE65BFE4F0B
:1015100080819181CF910C945407C03F30F08C2F83
:101520000E949F05CF910C942206CF910895CF93EE
:10153000C82F0E94E209C93349F42FEF87EE93E0E8
:10154000215080409040E1F700C000008C2FCF91E7
:101550000C94B1070F931F93CF93DF93C62FD42F13
:10156000022FFC0182818823A1F06093BE020E94B9
:1015700016069093B9028093B802C77081E001C04B
:10158000880FCA95EAF7DF91CF911F910F910C94C4
:101590004A071091BE02161335C08091B80290918F
:1015A000B9020E940706883C910560F5C0E2CD0FA4
:1015B0001D17B9F080E2810F883040F4177081E088
:1015C00001C0880F1A95EAF70E943F07C83048F417
:1015D00081E09D2F977001C0880F9A95EAF70E94CD
:1015E0004A07802F0E94970AC83098F4D77081E08C
:1015F00001C0880FDA95EAF7DF91CF911F910F9123
:101600000C943F07C77081E001C0880FCA95EAF7C4
:10161000F3CFDF91CF911F910F9108958F929F92F9
:10162000AF92BF92CF92DF92EF92FF920F931F93F0
:10163000CF93DF9368E771E021E1822E23E0922EC1
:10164000C0E0EE24E394F12CDB018D91BD01E82F85
:10165000E295EF70F0E091A18F70870101C0000F5B
:101660008A95EAF7892F802B81A392A1D02FD0955C
:101670009D2392A3B0EABA95F1F79EE7C92E91E0B7
:10168000D92E50E040E020E0D6013D916D01A32E1F
:10169000A2948FE0A822B12CD50190968C9190E075
:1016A0003F7002C0959587953A95E2F780FD4FC04F
:1016B0008E2D042E01C0880F0A94EAF7282B4F5F65
:1016C0005F4F4430510501F781A18D2381A382A191
:1016D000082B02A3F40180812817D9F1208381E02F
:1016E000C82BFFEF8F1A9F0A81E06E37780709F049
:1016F000ABCFCC2381F181E08093C4010E94160618
:101700009093C3018093C2018091C2019091C30163
:101710000E940706069718F18091110380934003F9
:1017200080911203809341038091130380934203BD
:1017300080911403809343038091150380934403A5
:1017400080911603809345031092C40108C080E085
:10175000B5CF80E0C5CF8091C4018111D5CF8C2F4A
:10176000DF91CF911F910F91FF90EF90DF90CF907D
:10177000BF90AF909F908F900895CF9384E090E0BA
:101780000E947E28C82F81E290E00E947E28982F38
:101790008C2FCF9108950F931F93CF93DF9328E061
:1017A000629FE001112450E0440F551FC40FD51F64
:1017B00030E3839FC00DD11D1124CE0186960E9477
:1017C0007E28082F10E0102F0027CE0187960E9458
:1017D0007E289801282BC901DF91CF911F910F918D
:1017E0000895462F873038F4763028F4643018F4A2
:1017F000672F0C94CB0B90E080E00895CF93DF939C
:101800000E94F10BEC0182389105A9F1D8F58133E2
:10181000910509F496C048F58932910509F48AC00A
:101820008A9709F495C0C11521E5D20708F0BCC01C
:10183000C11530E5D30708F014C1C83ED10508F042
:101840009CC0C03ED10560F5C83AD10508F087C0FC
:10185000C53AD10508F0FDC0C130D10509F1209786
:10186000F9F0C430D105E0F440C08533910509F4A6
:101870005AC0C997C1F680911A03837089F0C0EEEF
:10188000D0E00EC0833E910599F170F4803E910541
:1018900001F1823E910539F680911A0382FD21C043
:1018A000CE01DF91CF910895863E910561F1873E8B
:1018B000910571F1843E910509F0B5CF80911B032C
:1018C00081FFEECF80911A03C7EED0E084FD0DC0FA
:1018D000E7CF80911A0380FD12C190911B0390FF06
:1018E000DFCFC3EED0E084FFDBCFD0E0C0E0D8CFC5
:1018F00080911A0382FD06C190911B0390FDBFCF1A
:1019000084FFCECFF2CF80911A0383FDDDCFC8CF05
:1019100080911A0383FDF9C090911B0391FFF0CFD2
:10192000C4EED0E0BDCF80911A0385FFB9CFC9E2E4
:10193000D0E0B6CF80911A0385FFB2CFC5E3D0E0E7
:10194000AFCF80911A0386FFABCFCAE2D0E0A8CF19
:1019500080911A0386FFA4CFC1E3D0E0A1CFCF3B93
:10196000D10518F6C85AD0E0CC0FDD1FC65BDE4F9C
:101970000990D881C02DD46493CFC11540E2D4071B
:1019800058F4C11581E0D80708F08ACFC03FD105CF
:1019900008F4ABCFD06584CFC11590E4D90708F423
:1019A000A4CFDF70D06A7CCFC11525E5D20700F542
:1019B000C11534E5D30708F08AC0C11543E5D40743
:1019C00008F071C0C11582E5D80708F467C0CE01E0
:1019D0008370992721E030E002C0220F331F8A95DF
:1019E000E2F7C695C69580E2C89FE001112452C077
:1019F000C11599E5D907A8F4C11528E5D20708F063
:101A00006BC0C11536E5D30708F06FCF8C2F0E944D
:101A1000C208C82FD0E0DC2FCC27CC27DF71D062E2
:101A20003FCFC1154AE5D40708F45BC0CE019056FC
:101A30008115904208F059CF8D2F8F710E94C208F6
:101A400090E0982F882788279F719C012C2BE90113
:101A5000E6CFC55AD0E0C95BDE4FC881D0E0D06484
:101A60001FCFCE01E4E096958795EA95E1F7837064
:101A70002C2F26952695237040E2249F9001112457
:101A8000382B8C2F8370C1E0D0E002C0CC0FDD1F5B
:101A90008A95E2F7C22BD32BDC6802CFDC2FCC2750
:101AA000C16FD06AFDCECE018370992721E030E06E
:101AB00002C0220F331F8A95E2F7C695C69590E2C1
:101AC000C99FE0011124C22BD32BDA68E9CEDC2FA9
:101AD000CC27C46FD06AE4CEDC2FCC27C06FD06A8D
:101AE000DFCE8C2F8F700E94C20834E0D695C79548
:101AF0003A95E1F7CF709C2FEC01D069D1CEC9E3C4
:101B0000D0E0CECEC2EED0E0CBCEC6EED0E0C8CE96
:101B1000BF92CF92DF92EF92FF920F931F93CF93DA
:101B2000DF938C01C0908003D0908103E09082030A
:101B3000F090830380910C0390910D03A0910E030C
:101B4000B0910F03C82AD92AEA2AFB2ACFE1D0E0B4
:101B5000BC2ED701C6010C2E04C0B695A79597954B
:101B600087950A94D2F780FD0EC0219788F7B12C93
:101B70008B2DDF91CF911F910F91FF90EF90DF9010
:101B8000CF90BF900895B8018C2F0E94FE0B019753
:101B900061F3EECFCF93DF93EC010E94880DBE017D
:101BA000DF91CF910C94FE0B0E94CA0D292F2F704C
:101BB00092959F7092509E3078F4E92FF0E0E55DA9
:101BC000F64D0C94FF27803F19F020F4883E20F456
:101BD00081E00895843FE1F380E00895883EC0F3FA
:101BE000813FD1F7F5CF822F86958695869508950A
:101BF0006F927F928F929F92AF92BF92CF92DF921D
:101C0000EF92FF920F931F93CF93DF9387EFC82E2E
:101C100083E0D82E0EE510E0E801E09736011CC005
:101C2000F50185909490692DC7010E949228682D36
:101C3000C70101960E94922882E0A80EB11C82E0A2
:101C4000E80EF11CCE15DF0559F788E0680E711C0F
:101C500028960C171D0731F07E0188E0E81AF1087C
:101C60005301DECF005D1F4F80E3C80ED11C0E3A3A
:101C700081E0180789F6DF91CF911F910F91FF90B6
:101C8000EF90DF90CF90BF90AF909F908F907F901C
:101C90006F900895CF93DF93C6E7D1E060E0CE0167
:101CA0000E9492282196C11584E0D807B9F7DF91E8
:101CB000CF910895CF93C82F6FEF811161E282E237
:101CC00090E00E9492286FEFC11164E083E290E0FF
:101CD0000E9492286FEFC11162E284E290E0CF91FE
:101CE0000C9492286CEE7EEF90E080E00E94B02889
:101CF00060E082E090E00E94922860E083E090E063
:101D00000E94922810920C0310920D0310920E0361
:101D100010920F0360E084E090E00E94922860E05F
:101D200081E290E00E94922860E085E090E00E94CD
:101D3000922860E086E090E00E9492286FEF87E0B2
:101D400090E00E94922840E050E0BA0188E090E0E4
:101D50000E94A42860E08DE090E00E94922840E07C
:101D600050E0BA0188E190E00E94A42860E087E199
:101D700090E00E94922840E050E0BA018CE190E0AF
:101D80000E94A42860E080E290E00E94922840E057
:101D900050E0BA018FE090E00E94A42840E050E0BB
:101DA000BA0183E190E00C94A428CF92DF92EF92E5
:101DB000FF926B017C010E941308B701A60188E025
:101DC00090E0FF90EF90DF90CF900C94A42880914A
:101DD0004F03833018F48F5F80934F0360914B0360
:101DE00070914C0380914D0390914E030C94D50E4D
:101DF00080914F03882319F0815080934F036091A5
:101E00004B0370914C0380914D0390914E030C94C1
:101E1000D50EEBE4F3E083E0808311828FEF8283C1
:101E200088EC8383148260817181828193810C9418
:101E3000D50E10920A0380911B01E4EAF1E0882399
:101E400059F080911A0387FF07C08EE1DF011D92D0
:101E50008A95E9F70C94800786E0F8CF1F93CF931B
:101E6000DF93CDB7DEB7AA970FB6F894DEBF0FBEEB
:101E7000CDBF87E793E02091F100DC012D93CD01E8
:101E8000B3E08F379B07B9F780917803833009F46B
:101E900071C0B8F4813009F448C0823009F4B2C08E
:101EA0008091E80083FF3AC1809177039091780395
:101EB0009A3008F033C1E92FF0E0E75CF64D0C945E
:101EC000FF278A3009F48DC08B3009F470C0893047
:101ED00039F780917703813219F780917B039091D4
:101EE0007C03009711F00297D9F68091E800877F74
:101EF0008093E8008091E80082FF37C09091F30062
:101F00008091F200029729F48091F1008B7F81305B
:101F100021F48091F100809353038091E8008B7746
:101F20008093E8000E94C203BBCF80917703813A7F
:101F300009F0B6CF8091E800877F8093E800809118
:101F40007B0390917C03892B61F460E284E593E04C
:101F500070E00E9474048091E8008B778093E80021
:101F60009FCF60E090E080E0F3CF80917F0381110C
:101F7000C1CF96CF80917703813A09F091CF8091BC
:101F80007B0390917C03892B09F08ACF8091E80034
:101F9000877F8093E8008091E80080FFFCCF8091EC
:101FA0001B018093F1008091E8008E77B9CF80917A
:101FB0007703813209F074CF80917B0390917C0389
:101FC000892B09F06DCF8091E800877F8093E8002E
:101FD0000E94C2038091790380931B010E94190F14
:101FE0005FCF80917703813209F05ACF8091E8006A
:101FF000877F8093E8000E94C20380917A038093D8
:1020000052034ECF80917703813A09F049CF8091F6
:10201000E800877F8093E8008091E80080FFFCCF94
:1020200080915203BECF803899F0823809F076C093
:1020300080917B038F70873008F070C08093E90037
:102040008091EB0085FB882780F91092E90006C09B
:102050008091740390917503911182609091E800D2
:10206000977F9093E8008093F1001092F1008091A7
:10207000E8008E77C0C1882309F4ADC1823009F031
:102080004DC0809179038111B1C180917B038F7024
:102090002FEF280F263008F041C08093E9002091EF
:1020A000EB0020FFA3C1933031F48091EB008062FC
:1020B0008093EB009BC19091EB0090619093EB00BB
:1020C00021E030E001C0220F8A95EAF72093EA0070
:1020D0001092EA008091EB008860EACF81111EC067
:1020E000109179031F778091E3008078812B809392
:1020F000E3008091E800877F8093E8000E94C2039C
:102100008091E80080FFFCCF8091E300806880939D
:10211000E30082E0111183E080937F038091E80067
:1021200083FF0AC08091E800877F8093E800809158
:10213000EB0080628093EB00AA960FB6F894DEBFA6
:102140000FBECDBFDF91CF911F910895805882308F
:1021500028F72091790330917A032C3DE3E03E0784
:10216000A1F583E08A838AE289834FB7F894DE0180
:10217000139620E03EE051E2E32FF0E05093570049
:10218000E49120FF03C0E295EF703F5FEF708E2F68
:1021900090E0EA30C0F0C7968D939D932F5F243175
:1021A00059F74FBF8091E800877F8093E8006AE28B
:1021B00070E0CE0101960E9474048091E8008B7754
:1021C0008093E800ABCFC096E7CF80917B039091DE
:1021D0007C03432F55274330510509F44AC078F555
:1021E0004130510509F485C08BE590E0E6E1F5E06A
:1021F0004230510509F092CF2091E800277F2093CB
:10220000E80020917D0330917E038217930708F444
:102210009C0140E02115310509F070C041116EC0EC
:102220008091E80082FDC9CF80917F03882329F245
:10223000853019F28091E80083FFF2CFBECF4132A2
:10224000510509F447C04232510509F067CF833088
:10225000910508F063CFFC01EE0FFF1FEB56FE4F18
:102260000190F081E02D8E569E4FDC018C9190E024
:102270001DC0332721303105E9F02115310579F0F2
:1022800022303105F9F02330310509F047CFE3E87A
:10229000F5E0E4918E2F90E0E3E8F5E007C0E9EA8D
:1022A000F5E0E4918E2F90E0E9EAF5E0009709F47B
:1022B00035CFA2CFE5E9F5E0E4918E2F90E0E5E996
:1022C000F5E0F4CFE9E8F5E0E4918E2F90E0E9E85D
:1022D000F5E0ECCF8330910508F020CF880F991FEF
:1022E000FC01E556FE4F0190F081E02D89E090E081
:1022F00083CF82E190E0E1E7F5E07ECF80917F033C
:10230000882309F45ACF853009F457CF8091E8002B
:1023100083FD53CF8091E80082FD82CF8091E80059
:1023200080FF78CF9091F3008091F2002115310564
:1023300019F08830910550F041E0089709F040E02D
:102340008091E8008E778093E80064CF44914093B9
:10235000F1003196215031090196E8CF803809F01B
:10236000DDCE8091E800877F8093E800809176033E
:102370008093F1007CCE8111D1CE1091790312307F
:1023800008F0CCCE8091E800877F8093E80010931E
:1023900076030E94C203112311F084E005C08091EE
:1023A000E30087FDFACF81E080937F0342E061EC98
:1023B00081E00E94E10342E261EC84E00E94E103DB
:1023C00042E261EC82E00E94E10342E260EC83E0E1
:1023D0000E94E103A3CE80917903813009F09ECE63
:1023E00081E0933009F080E0809375031092E9005A
:1023F0008091E800877F8093E8000E94C2038ECE20
:1024000060914B03669570E04BE050E084E091E012
:102410000E947128892B19F481E080933E030E9469
:1024200016069093200380931F0308955F926F9286
:102430007F928F929F92AF92BF92CF92DF92EF9254
:10244000FF920F931F93CF93DF9300D000D00F9292
:10245000CDB7DEB780914B0380FD0AC0E8ECF1E018
:10246000118210821282339622E0E232F207C1F723
:1024700080901803909019038114910409F455C0B9
:10248000D12CC12C66246394712C53E0552E80917D
:102490003F0393010C2C01C0220F0A94EAF7822318
:1024A00009F43BC0F601EE0FFF1FE80DF91DE590A2
:1024B000F490E114F104C9F145E050E0B701CE0118
:1024C00001960E94682809810F3F39F18A81800FA7
:1024D0009927991F8F31910514F08EE190E05C01EE
:1024E000AA0CBB1C8A0D9B1DFC01E853FE4F5F012B
:1024F000059D8001112408531E4F0A151B0520F06D
:10250000F5E0EF0EF11CD8CF98014D816C818B81E5
:102510000E9429080D5F1F4FF0CF2FEFC21AD20A79
:1025200038E0C316D10409F0B2CF279A35B13F770E
:1025300025B120684FB7F89488EC91E0FC015191E7
:10254000CF0168E025B9000000C057FF35B9550F2D
:10255000000000C000C000C035B900C06A9591F706
:10256000F2E082329F0751F74FBF8FE594E0019769
:10257000F1F700C000000F900F900F900F900F9098
:10258000DF91CF911F910F91FF90EF90DF90CF904F
:10259000BF90AF909F908F907F906F905F900895C5
:1025A0008F929F92AF92BF92CF92DF92EF92FF9263
:1025B0000F931F93CF93DF93FC01B280948081E04F
:1025C0008483C2E2D2E008EC11E08BE4A82E8824D8
:1025D0008394EE24EA94F12C2BE4C22ED12C91109A
:1025E0001DC01B821A8298014A81698188810E94DC
:1025F000290825960D5F1F4F82E0C83BD80779F761
:10260000DF91CF911F910F91FF90EF90DF90CF90CE
:10261000BF90AF909F908F900C9416122B81222325
:1026200009F121502B833C818A2D821B311101C07D
:10263000822F90914E03899FC0011124B6010E9400
:10264000D7276A83211104C0332311F01C82AB8287
:1026500022E02B1540F280914C03888380914D033A
:102660008983C1CF0E945828823091400CF0BBCFA3
:1026700082E08B15C0F40E945828B7010E94EB2716
:10268000888322E02B1590F40E94582820914D0356
:102690002695622F70E00E94EB27280F29831A826B
:1026A000AB828C82A0CF80914C03EACF20914D0366
:1026B000F5CFEF92FF921F93CF93DF93EC0188EC5D
:1026C000E82E81E0F82E10E08C81970140914E03B6
:1026D00060914D03810F0E942908185F83E0E80E86
:1026E000F11C103F89F70E9416129A818C8190FF8D
:1026F00008C08F5F8C83DF91CF911F91FF90EF9087
:1027000008958150F7CFBF92CF92DF92EF92FF9260
:102710000F931F93CF93DF93FC018281DD24DA9422
:1027200080FD02C0DD24D39408EC11E0D0E0C0E0CD
:102730002EE1B22EF80111821082128294E0E92E6D
:10274000F12CC12C8091C5018C0D8F310CF43DC052
:102750006B2D0E94C927892F082E000C990B8C170E
:102760009D0791F480914E038E9DA0018F9D500D89
:1027700011245595479555954795980160914D03BE
:1027800080914C030E942908CD0CF1E0EF1AF1086A
:10279000C9F621960D5F1F4FCE31D10559F60E9423
:1027A00016128091C50191E0D91215C0811111C096
:1027B0008DE18093C501DF91CF911F910F91FF9023
:1027C000EF90DF90CF90BF90089587FFC5CF825ED6
:1027D000C3CF8150EECF90E00196BE010E94EB275F
:1027E000E8CF0F931F93CF93DF93C8ECD1E0FE01A6
:1027F000118210821282339682E0E232F807C1F72A
:1028000010E000E08091C601082E000C990B08171B
:1028100019078CF180911001082E000C990B80177C
:1028200091074CF19E0140914E0360914D038091C0
:102830004C030E9429080F5F1F4F23960E3111058C
:1028400009F70E94161280910F019091C601980F0E
:102850009093C60120911001280F209310011216A9
:1028600014F49D311CF0819580930F01DF91CF917D
:102870001F910F910895198218821A82DCCFEF926E
:10288000FF920F931F93CF93DF93EC018C819D8177
:102890000196817099279D838C8388ECE82E81E0D6
:1028A000F82E10E005E5812F86952C813D81820F61
:1028B000932F911D8170970140914E0360914D03BC
:1028C000809F802D11240E9429081F5F83E0E80E5D
:1028D000F11C1E3141F7DF91CF911F910F91FF90B5
:1028E000EF900C941612EF92FF920F931F93CF93D9
:1028F000DF938C01C8ECD1E0F12CE12CF80194813C
:1029000060914D0380914C03FFE0EF16F104FCF45D
:102910009923F9F09E0140914E030E9429082FEF60
:10292000E21AF20A23968EE1E816F10439F70E94C2
:102930001612F801848190E00196817099278483B2
:10294000DF91CF911F910F91FF90EF900895992300
:1029500009F39E0140E0E1CF90914B0390FF0CC042
:10296000E8ECF1E0818360834283339692E0E232C7
:10297000F907C1F70C94161208950F931F93CF9384
:10298000DF9300D00F92CDB7DEB78C018091C701E5
:1029900081110AC09E012F5F3F4F48EC6FEF0E94EC
:1029A00029088A818093C701F8016481613069F048
:1029B0008091C70140E0662361F040E0623011F48D
:1029C0004091C70180E060E004C06091C70140E031
:1029D00080E00E94AC14F801848190E0019663E0ED
:1029E00070E00E94EB2784830F900F900F90DF918F
:1029F000CF911F910F910895CF93DF9300D00F9245
:102A0000CDB7DEB790914B0390FF0AC09E012F5FB8
:102A10003F4F0E9429084B8169818A810E94AC1432
:102A20000F900F900F90DF91CF910895CF93DF9388
:102A3000EC01EC81F0E0E950FD4F4491EBE4F3E070
:102A4000628181810E94FC148C818F5F8C83DF9175
:102A5000CF910895CF93DF93EC01EBE4F3E0438152
:102A600062818C810E94FC148C818F5F8C83DF914A
:102A7000CF9108955F926F927F928F929F92AF92C3
:102A8000BF92CF92DF92EF92FF920F931F93CF935B
:102A9000DF9300D00F92CDB7DEB7182F762E042F1C
:102AA000622E90914B0390FF29C0E92FE695AE2F3F
:102AB000B0E0A45EBE4F8C9180933D039E7F923028
:102AC00081F59E012F5F3F4F812F0E9429084B8186
:102AD00069818A810E94AC1410934C0370924D035B
:102AE00000934E03662051F060914B0370914C03AC
:102AF00080914D0390914E030E94D50E0F900F9040
:102B00000F90DF91CF911F910F91FF90EF90DF9089
:102B1000CF90BF90AF909F908F907F906F905F907D
:102B20000895823019F400914E03D6CF863019F4FF
:102B300010914C03D1CF8930D9F3893169F6E9512D
:102B40008E2F8170582EE695F0E0EE50FD4FA59047
:102B5000B490BB2488ECE82E81E0F82ED12CC12C57
:102B60009EE1892E912CC601B4010E94D727812FA6
:102B7000511013C0860F9701402F672D0E9429081E
:102B8000CA0CDB1C83E0E80EF11C82E2E81682E04E
:102B9000F80649F70E9416129FCF861BECCF909142
:102BA0004B0390FF36C09170811129C092609093C1
:102BB0004B03662351F060914B0370914C0380915D
:102BC0004D0390914E030E94D50E60914B03669584
:102BD00070E04BE050E084E091E00E947128892B86
:102BE000A9F010923E0381E08093220320E04091FF
:102BF0004E0360914D0380914C030C943A158B3237
:102C000010F09465D4CF880F982BD1CF0E9400127A
:102C1000EACF089521E030E0A90102C0440F551F1A
:102C20008A95E2F7CA0120913F03662399F0822B2F
:102C300080933F0380913E03811106C080914B0336
:102C400060E086950E94CF1580914B0380FD05C002
:102C50000C94161280958223EBCF0895CF92DF92C9
:102C6000EF92FF926B017C0160E0C114D104E1049A
:102C7000F10441F0DC01C601B695A79597958795BB
:102C8000682F617081E00E940A1660E0C114D104CF
:102C9000E104F10459F0D701C60132E0B695A795D9
:102CA000979587953A95D1F7682F617082E00E94D9
:102CB0000A1660E0C114D104E104F10459F0D7010F
:102CC000C60123E0B695A795979587952A95D1F7E4
:102CD000682F617083E00E940A16C0928003D09230
:102CE0008103E0928203F0928303FF90EF90DF90E4
:102CF000CF900C9480070F931F9360918003709185
:102D0000810380918203909183038B019C01067063
:102D1000112722273327063011052105310529F413
:102D200068601F910F910C942E16677FFACF0F9356
:102D30001F9341E050E060E070E004C0440F551F75
:102D4000661F771F8A95D2F7CB01BA0160957095FF
:102D500080959095009180031091810320918203CA
:102D60003091830360237123822393231F910F915A
:102D70000C942E1690910703809589238093070366
:102D8000282F277071F4282F082E000C330B921770
:102D9000130639F08595859585950E9497161092B2
:102DA000070308950F931F9341E050E060E070E047
:102DB00004C0440F551F661F771F8A95D2F7809174
:102DC000800390918103A0918203B09183038A01D3
:102DD0009B01082B192B2A2B3B2BC901B8011F91F2
:102DE0000F910C942E1680FF10C0509A589881FFB6
:102DF0000EC0559A5D9882FF0CC0549A5C9881FB76
:102E0000662760F980E00C940A165098EFCF559829
:102E1000F1CF5498F3CF80914B038695815009F4FC
:102E20008AE261E00C94CF1580914B0386958F5F09
:102E30008B3208F081E061E00C94CF1590914B0348
:102E400090FF07C09695981720F0961710F40C94F1
:102E5000141761E00C94CF154F925F926F927F929E
:102E60008F929F92AF92BF92CF92DF92EF92FF929A
:102E70000F931F93CF93DF9300D000D00F92CDB765
:102E8000DEB77C01FC0183819481892B31F0808144
:102E9000918189238F3F09F0E7C50F900F900F9024
:102EA0000F900F90DF91CF911F910F91FF90EF90B6
:102EB000DF90CF90BF90AF909F908F907F906F905A
:102EC0005F904F9008950E94880D182F682F898178
:102ED0009A810E94090769817A81812F0E94F10BF2
:102EE0008C01F7019281992309F4B3C5980122510D
:102EF0003F452031310508F085C58FEF93E00E94F2
:102F00007E28025156E7852E99249394882379F1DF
:102F100080910703877009F4C0CFF701828188236D
:102F200009F4BBCF82E00F900F900F900F900F909D
:102F3000DF91CF911F910F91FF90EF90DF90CF9095
:102F4000BF90AF909F908F907F906F905F904F90C9
:102F50000C94BA168114F4E09F06D1F2C4010E94C9
:102F60007E28811101C001502FEF821A920A0111AF
:102F7000F1CF1C821B82662463944AE0542E8401A4
:102F80000F5F1F4FC4010E947E2889831A82882305
:102F900009F4BECF9FEF980F933008F58A836982BA
:102FA00032E0830E911CC8010E947E288B83882307
:102FB00009F4AECF8E010F5F1F4FF801208122234D
:102FC000F1F2213009F043C091818281913049F4BE
:102FD0000E5F1F4F0E94970A0F5F1F4FEECF4801F1
:102FE000E9CF923029F40E5F1F4F0E94E209F4CF1F
:102FF000933029F40E5F1F4F0E94B107EDCF94303C
:1030000019F00F5F1F4FE8CF0E5F1F4F30E020E039
:10301000B8016F5F7F4FF80141818053990B8A306F
:10302000910550F021503109B8F28FE99FE00197E6
:10303000F1F700C00000F6CF529EF001539EF00D54
:1030400011249C012E0F3F1F842F8B01E1CFE22F13
:10305000F0E0E958FB4F7490822F8695869586950F
:1030600090E0FC01E959FB4FA4902770B12C022E8F
:1030700002C0B594A7940A94E2F7E1E0AE22BB2423
:10308000FC01E95AFB4FC490D12C02C0D594C794DF
:103090002A95E2F7F1E0CF22DD24A114B10419F062
:1030A00081EE0E94E209C114D10419F086EE0E945B
:1030B000E209872D0E94970ACD2819F086EE0E941A
:1030C000B107AB2809F488CF81EE96CF81E00E944A
:1030D000D2160E947B161CCF81E00E949716F9CF72
:1030E00082E0F5CF053F2CE5120709F461C008F432
:1030F0005BC027E245EE66EE063F8CE5180709F453
:10310000A4C4992309F4C1C41092BE020230ECE5B4
:103110001E0708F430C10631FCE51F0738F098019E
:103120002A5F3C452930310508F025C10E94BD0BBE
:1031300090931B0380931A0300312CE5120709F4C6
:10314000E9C008F073C008308CE5180709F4D4C052
:1031500008F045C00430ECE51E0709F4C1C078F55D
:1031600002302CE5120709F4B5C080911A03826081
:1031700003301C4509F4B1C060911A0310911B0380
:1031800084E090E00E949228612F81E290E00E940A
:1031900092280E94190FBCCE27E245EE65EE55C479
:1031A00026E241EE60EE51C427E245EE64EE4DC4E6
:1031B00026E241EE62EE49C428E241E0EFCF06305C
:1031C0008CE5180709F494C080911A0388600730D1
:1031D0001C4508F482C080911A0380627EC08091F1
:1031E0001A038D7F0C30ECE51E0709F476C070F4ED
:1031F00080911A038C600A302CE5120709F46DC027
:1032000008F47EC080911A038E7F67C00E308CE573
:10321000180709F47BC080911A038B7F0F301C457F
:1032200008F45BC080911A038F7E57C00B3FECE51A
:103230001E0709F459C030F503312CE5120709F4D3
:1032400071C078F401318CE5180709F467C00231C8
:103250001C4509F091CF0E94190F80911A038F77B6
:103260003CC00531ECE51E0709F464C008F478C0E1
:1032700080911B0381600A3F1C4509F07DCF80933C
:103280001B037ACF0F3F3CE5130709F44FC088F4C6
:1032900080911B038D7F0D3F9CE5190781F3809181
:1032A0001B038E7F0E3F1C4550F380911B038360F0
:1032B000E6CF0130FDE51F0709F45BC008F446C006
:1032C00060E002301D4509F057CF8EE090E00E948B
:1032D000922852CF80911A03816080931A034CCFB9
:1032E00080911A038460F9CF80911B038260C7CF5D
:1032F00080911A038061F1CF80911A038064EDCF31
:103300000E94190F80911A038068E7CF80911A03F9
:10331000877FE3CF80911A038F7DDFCF80911A03DF
:103320008F7BDBCF80911A03837FD7CF80911B03E4
:103330008C7FA5CF80911A0382FB992790F921E019
:10334000922790FB82F990FB83F9C7CF80911B03F2
:10335000982F909591708E7F892B90FB81F98FCF5C
:103360000E94190F90911A03892F97FB87F98058B3
:10337000B4CF61E0AACF80910A030631ECE51E07C5
:1033800009F08FC38A7A91E009F490E09093BF022C
:10339000811106C089E20E94AE060E943E06B8CDA9
:1033A00085E3F9CF85E37AC380914B0380FF1BC08F
:1033B0008E7F80934B0360914B0370914C038091FF
:1033C0004D0390914E030E94D50E10923E03FFEFE5
:1033D00020E732E0F15020403040E1F700C000002B
:1033E0000E94161295CD816080934B0361E0869513
:1033F0000E94CF158DCD4BE057E164E177E10E944B
:103400000E0886CD44E157E16BE077E1F8CF4AEF53
:103410005FE163E070E2F3CF43E050E26AEF7FE107
:10342000EECF42EE5FE16EEE7FE1E9CF4EEE5FE17F
:1034300062EE7FE1E4CF4AEC5FE166ED7FE1DFCF52
:1034400046ED5FE16AEC7FE1DACF48EF5EE067EEE0
:103450007EE0D5CF47EE5EE068EF7EE0D0CF61E062
:1034600081E0C6CF65E082E00E941E1751CD68E082
:1034700086E0FACF6EE089E0F7CF64E18FE0F4CF29
:1034800067E185E1F1CF61E088E1B2CF62E289E1F5
:10349000EBCF61E083E2ACCF01158CE5180709F4AE
:1034A00047C00E3D1C4509F450C0F7010081118151
:1034B000992309F44DC0C8010E94880DD82E682FA9
:1034C000C8010E940907B8018D2D0E94FE0B8C01D6
:1034D000882EF701A580A2943FE0A322D280D110CC
:1034E0001092090380910703877099F0DD2089F01D
:1034F000812F807F803421F080E2800F883048F077
:1035000082E00E94BA16809107038770CC24C3948E
:103510008111C12CB12EB2942FE0B222FBE0FB1539
:1035200008F450C0EB2DF0E0ED5BF64D0C94FF2756
:103530000E94190FFFEF24E33CE0F150204030409F
:10354000E1F700C000000E94BE090E94720EE0CCAC
:10355000C8010E94E206D82EB6CF212F2F70A22ECE
:10356000107F19F0A29490EFA922DD20C9F0AA20C3
:1035700069F080E2800F883010F081100BC08091DC
:103580000A03A82AA0920A030E943E06802F0E94E6
:10359000E20918C080910903A82AA0920903F4CF78
:1035A000802F0E94B107AA2069F0A094005E083025
:1035B00010F081103DC080910A03A822A0920A0356
:1035C0000E943E06EB2DE850FF0B349720F40E943A
:1035D000A5070E94F316CC2009F45FCC8091070365
:1035E00080FD5BCCF70112828595859585950E94BB
:1035F000D216C7010E942C178091070385958595E7
:1036000085950F900F900F900F900F90DF91CF91B5
:103610001F910F91FF90EF90DF90CF90BF90AF90F0
:103620009F908F907F906F905F904F900C94971623
:1036300080910903A822A0920903C2CF312F3F70C5
:10364000932E107F103219F0929480EF98228820E8
:1036500071F081E0881661F1DD20B9F1AA2071F1E5
:10366000F701858180FF92CF8F70858327C0DD2091
:1036700091F090910B03892D892BA11003C00E941A
:103680004A07A0CFE1E0AE12FACF981709F49ACF1B
:1036900080930B0397CFA11006C00E943806892D96
:1036A0000E943F078FCFF1E0AF1609F48BCFF5CF23
:1036B000DD2031F025E02A1508F484CF892DDFCFF5
:1036C00034E03A1508F47ECFEACFAA2041F3F9E3BB
:1036D0008F1291C12FEF37EE83E0215030408040B0
:1036E000E1F700C0000087C1812F86958695837021
:1036F00061F0813009F066CFC8019370D11002C02B
:1037000090E080E00E9454075DCFC8019370D11013
:1037100002C090E080E00E946A0754CF802FDD2035
:1037200029F00E949F050E9422064CCF0E94DE04D1
:10373000FACF812F837009F066C0D11043CF802F5C
:10374000829586958770880F880F602F6F70462E40
:10375000512C712C612C082E04C0440C551C661C85
:10376000771C0A94D2F740E050E0BA0104FF0FC082
:103770004FE050E060E070E004C0440F551F661F4A
:10378000771F8A95D2F74095509560957095812F57
:10379000869586958370823019F1D8F400910C03D8
:1037A00010910D0320910E0330910F03813069F0C9
:1037B0004429552966297729CB01BA016023712351
:1037C000822393230E949B07FDCE402A512A622A1E
:1037D000732ACB01BA016429752986299729F2CF6A
:1037E000442955296629772900910C0310910D036E
:1037F00020910E0330910F03CB01BA01602771278E
:1038000082279327DFCF8695DD2011F0812F8170ED
:10381000882309F4D7CE802F829586958770880FEC
:10382000880F602F6F70462E512C712C612C082E42
:1038300004C0440C551C661C771C0A94D2F740E067
:1038400050E0BA0104FF0FC04FE050E060E070E0CC
:1038500004C0440F551F661F771F8A95D2F7409505
:10386000509560957095812F8695869583708230EE
:1038700019F1D8F400918003109181032091820303
:1038800030918303813069F04429552966297729CD
:10389000CB01BA0160237123822393230E942E1649
:1038A00091CE402A512A622A732ACB01BA01642997
:1038B000752986299729F2CF442955296629772920
:1038C0000091800310918103209182033091830342
:1038D000CB01BA016027712782279327DFCF1F70A2
:1038E000DD2029F0812F0E94D216802FC8CE802F94
:1038F0000E943F07812F0E94971664CE802F92EF7F
:10390000891609F450C0981578F0E0EF8E1619F179
:10391000F1EF8F1609F43FC0DD2009F467C0A11054
:1039200035CE812F8F713CC023EF821609F440C041
:1039300034EF8312F1CFDD2009F44DC01F71812FC8
:103940000E94D216E8E01E9FC0011124836080937C
:103950000703812F25C0DD20C9F084E08A1508F413
:1039600031CE1F7161E070E080E090E004C0660F2E
:10397000771F881F991F1A95D2F700918003109125
:1039800081032091820330918303A4CF95E09A159F
:1039900008F418CEE6CF812F8F71DD2009F4ABCF6C
:1039A0000E94D2160FCE812F8F71DD20C9F3A3CFD5
:1039B00060E070E0CB01DD2009F470CF1F7161E0A1
:1039C00070E080E090E004C0660F771F881F991FA9
:1039D0001A95D2F763CF81E00E94BA16F1E0FA158A
:1039E00008F0F0CD82E00E94BA16ECCDAA2039F0A2
:1039F000893309F46FCE802F0E94B107E3CD812F68
:103A00008F7179CF0031FFE51F0709F45FCB0131DA
:103A10002FE5120709F464CB033F2CE5120709F4E4
:103A2000BFCB08F05FCB083D8CE5180709F4B4CB99
:103A3000093DECE51E0709F4BFCB073DFCE51F0778
:103A400009F05FCB26E241EE61EEC7010E94AA0AAF
:103A50005FCA00313FE5130709F43ECB01318FE522
:103A60001807D1F682E039CB85E0DE01119601908E
:103A70000D928A95E1F7F701228189819A812111BE
:103A800022CA0E94E206182F26CA06311C4509F0F8
:103A90000CCD8091BF02811185CC89E20E94830602
:103AA0007CCC8272F801E25CFC45E431F10508F05F
:103AB000F3CCE15BF64D0C94FF271F93CF93DF937C
:103AC0008091C502807FA9F48091C202882389F089
:103AD0008091F702D091C6026091C0027091C1023C
:103AE000A091C302B091C402C62FC72316E0D81319
:103AF00004C0DF91CF911F91089590E0109711F0CD
:103B0000CF3F19F401968770F2CF189F9001199F4B
:103B1000300D1124F901E953FD4F41814713F2CFD4
:103B200040814613EFCF42814111ECCF4381548154
:103B30004A1B5B0B483C510528F78091C5028F70EA
:103B400080618093C502F901E453FD4F80818F703D
:103B50008061808380EC92E00E942C17DF91CF91EE
:103B60001F910C943507AF92BF92CF92DF92EF92E4
:103B7000FF920F931F93CF93DF93CDB7DEB761977B
:103B80000FB6F894DEBF0FBECDBF8C0185E0F80103
:103B9000DE011D9601900D928A95E1F7F801808172
:103BA0009181E28020ECA22E22E0B22E6091C3022D
:103BB0007091C4026115710509F43EC13091C002D3
:103BC0004091C102232F24232F3F09F435C1C38024
:103BD000D480F090C202F601E61BF70BFF2009F437
:103BE000FBC02091C502522F507FE83CF10508F040
:103BF000BBC0511178C0FE2C491321C038131FC01F
:103C0000E1101DC02F7020612093C502C5010E94E4
:103C10002C178091C502F80185838F2D61960FB610
:103C2000F894DEBF0FBECDBFDF91CF911F910F91F2
:103C3000FF90EF90DF90CF90BF90AF900895CD2888
:103C400029F0282F29232F3F09F014C120E0F22F5B
:103C5000F170DF2E20FF3DC02091F7024091C60297
:103C600056E0241315C08D879E878D859E850E9402
:103C7000CA0D292F22952F702230F8F0243020F51C
:103C80009F70F9F0F8019581907FD9F4D12C1FC075
:103C900030E0529FF001539FF00D1124E953FD4F86
:103CA0006181961306C06081861303C06281E612AB
:103CB00010C02F5F3F4F2770D4CF9F7011F0882323
:103CC00029F3805E883010F3C8010E942C17FD2C68
:103CD000A4CFEE2009F4A1CF8091C502816080932A
:103CE000C502F12C9ACF491312C0381310C0E1104D
:103CF0000EC0F8012583C8010E942C1786E0F80148
:103D0000A0ECB2E001900D928A95E1F786CF8D8705
:103D10009E878D859E850E94D40D882309F1EE2013
:103D2000F9F08091C502803270F02091C00230918C
:103D3000C10238872F831986DB86CA868C87CE011D
:103D400007960E942C1786E0F801A0ECB2E00190E3
:103D50000D928A95E1F70E945D1DFF24F3945DCFDB
:103D6000C8010E942C17F9CF51110AC080EC92E0D3
:103D70000E942C1786E0F50111928A95E9F7B1CFE0
:103D800049130FC038130DC0E1100BC0F801258393
:103D9000C8010E942C1786E0F50111928A95E9F777
:103DA0003CCF8D879E878D859E850E94D40D88236C
:103DB000B9F2EE20A9F28091C502803220F2209162
:103DC000C0023091C1023A8329831B82DD82CC82FA
:103DD0008E83CE010196B5CFE83CF105E0F6FE2CCE
:103DE000EE2009F4BDCF491316C0381314C08091DA
:103DF000C50280FD83CF982F907F09F47FCFF80113
:103E00008583903F09F477CF982F907F905F8F70D4
:103E1000892B858370CF8D879E878D859E850E9497
:103E2000D40D811190CF8091C50281608093C5022D
:103E3000C8010E942C17F1CEEE2009F491CF8D8796
:103E40009E878D859E850E94D40DF82E882309F4C7
:103E500087CF86E0F801A0ECB2E001900D928A9540
:103E6000E1F78091C0029091C1020E94CA0D0E94A8
:103E70005D1DD3CE21E02E25EACE1F93CF93DF9395
:103E8000CDB7DEB767970FB6F894DEBF0FBECDBFD4
:103E90004B8B5C8B6D8B7E8B8F8B1A8A198A85E09E
:103EA000FE017396DE011D9601900D928A95E1F751
:103EB00086E0FE013D96DE01179601900D928A95EF
:103EC000E1F7CE0107960E94B31D882389F016E022
:103ED0008091F7029091C602891349C067960FB688
:103EE000F894DEBF0FBECDBFDF91CF911F91089533
:103EF00086E0FE013796DE01119601900D928A95BB
:103F0000E1F78A859B85892B11F38F819885892319
:103F10008F3FE9F22091C60230E0C9010196877017
:103F200099274091F7024817190671F40E94190F5A
:103F30001092C6021092F70286E0E0ECF2E0DF0198
:103F40001D928A95E9F7C3CF96E0929FD001939F87
:103F5000B00D1124A953BD4FFE01319601900D9271
:103F60009A95E1F78093C6020E943507B0CF819FF2
:103F7000C001112489539D4F0E94B31D882309F469
:103F8000ADCF8091F70290E00196877099278093DA
:103F9000F7029ECFEBE4F3E0438128E0421B08F4F4
:103FA00040E021E0628181810C943A15EBE4F3E07A
:103FB000438128E0420F08F44FEF21E062818181C4
:103FC0000C943A15EBE4F3E0628128E0621B08F4FC
:103FD00060E021E0438181810C943A15EBE4F3E049
:103FE000628128E0620F08F46FEF21E04381818154
:103FF0000C943A15EBE4F3E0818121E04381628186
:1040000088500C943A15EBE4F3E0818121E0438180
:104010006281885F0C943A151F920F920FB60F922F
:1040200011242F933F934F935F936F937F938F93BD
:104030009F93AF93BF93CF93DF93EF93FF93D09171
:10404000E900DF708091EC00C82FC17080FDC0E8EE
:104050001092E9008091F000877F8093F0007894BF
:104060000E942E0F1092E9008091F00088608093EA
:10407000F000CD2BCF70C093E900FF91EF91DF915D
:10408000CF91BF91AF919F918F917F916F915F91F0
:104090004F913F912F910F900FBE0F901F90189549
:1040A0001F920F920FB60F9211242F933F934F93AD
:1040B0005F936F937F938F939F93AF93BF93EF9390
:1040C000FF938091E10082FF09C08091E20082FFAE
:1040D00005C08091E1008B7F8093E1008091DA0040
:1040E00080FF24C08091D80080FF20C08091DA003A
:1040F0008E7F8093DA008091D90080FFB2C080E18A
:1041000089BD82E189BD09B400FEFDCF81E08093C5
:104110007F0380914A03811109C00E9420030E94FD
:1041200013048091E20084608093E2008091E100BA
:1041300080FF17C08091E20080FF13C08091E200F1
:104140008E7F8093E2008091E20080618093E200A4
:104150008091D80080628093D80019BC85E080935C
:104160007F038091E10084FF40C08091E20084FFE2
:104170003CC080E189BD82E189BD89B5982F9170ED
:1041800080FFFBCF8091D8008F7D8093D8008091F5
:10419000E1008F7E8093E1008091E2008F7E80932A
:1041A000E2008091E20081608093E20080917603DA
:1041B000882309F45CC084E080937F030E94190F78
:1041C0000E94A5070E94F31610925103809150039C
:1041D000882349F080914B03816080934B0360E01A
:1041E00086950E94CF150E9400128091E10083FF06
:1041F00027C08091E20083FF23C08091E100877F88
:104200008093E10082E080937F0310927603809197
:10421000E1008E7F8093E1008091E2008E7F8093A9
:10422000E2008091E20080618093E20042E060E081
:1042300080E00E94E1038091F00088608093F000AC
:10424000FF91EF91BF91AF919F918F917F916F916E
:104250005F914F913F912F910F900FBE0F901F9044
:10426000189519BC10927F0310924A035FCF80917A
:10427000E30087FD93E090937F03A0CFCDB7DEB737
:10428000EE970FB6F894DEBF0FBECDBF84B7877F21
:1042900084BF0FB6F894A8958091600088618093E0
:1042A0006000109260000FBE80E890E00FB6F894B6
:1042B00080936100909361000FBE85B7806885BFD1
:1042C00085B7806885BF0E9420030E9413048091F7
:1042D000E20084608093E200789480917F038823D9
:1042E000A1F01091E9001F709091EC00892F81706E
:1042F00090FD80E8182B1092E9008091E80083FD82
:104300000E942E0F1F701093E90082E084BD93E09D
:1043100095BD9AEF97BD80936E00A8E7B1E02EE7B8
:1043200031E041E050E08D91E82FE295EF70F0E050
:1043300011A18F70BA0101C0660F8A95EAF7962F16
:104340009095912391A382A1862B82A32A173B07E4
:1043500051F7AEE7B1E022E831E041E050E08D9165
:10436000E82FE295EF70F0E011A18F70BA0101C063
:10437000660F8A95EAF7962F9095912391A382A1D3
:10438000862B82A32A173B0751F7E1E1F3E087E18F
:1043900093E0A0E4B3E011921D928E179F07D9F726
:1043A0000E940E0B8FE39CE90197F1F700C000001B
:1043B0000E940E0B8091400380FF0BC080E00E94A2
:1043C0005A0E6FEF7FEF90E080E00E94B0280E94CD
:1043D000BE0990E080E00E948C288C3E9E4F11F038
:1043E0000E94720E82E290E00E947E28813209F0E3
:1043F00059C583E290E00E947E28843009F052C5BE
:1044000084E290E00E947E28823209F04BC590E061
:1044100080E00E948C288C3E9E4F11F00E94720E0C
:1044200082E090E00E947E28809336030E94BD0BBC
:1044300090931B0380931A0383E090E00E947E28F0
:10444000682F70E090E080E00E949B078091170346
:10445000811136C090E080E00E948C288C3E9E4FF7
:1044600021F00E94720E0E94090F88E090E00E94E5
:10447000862860934B0370934C0380934D03909375
:104480004E036E7F71F40E94090F88E090E00E9455
:10449000862860934B0370934C0380934D03909355
:1044A0004E030E94130810923E0380914B0380FF3D
:1044B00004C060E086950E94CF1581E080931703C9
:1044C00052985A9A5198599A89B182FB882780F953
:1044D000499934C290E0892B8093270360911A0395
:1044E000606860931A0310911B0384E090E00E94BF
:1044F0009228612F81E290E00E94922887EF94E059
:10450000909319038093180381E191E090931D0328
:1045100080931C0394E0C92E95E0D92E80E493E0AB
:1045200026E0B22EB80E80917F03853009F408C2D0
:104530000E940E0BE7E3F3E0A0E4B3E010E000E03C
:10454000302F8D919191981709F457C2292F282760
:1045500090E099249394422F492109F449C29DABDC
:104560003EAB892191E009F490E09FAB0E941606D2
:104570008160782F99AF88AF4DA95EA96FA989ADE9
:104580000E943D1FF801E95CFC4F808198269082D3
:1045900080913E03882309F441C080913D03E0915E
:1045A0004B03E695E81BE0932103823009F03CC2FF
:1045B000F0E0EE5EFA4FE4910E2F10E086E1882ED7
:1045C00085E1982E80912203882389F0109222039E
:1045D0000E941606980120953095820F931F9093A4
:1045E000200380931F0310922403109223038091D1
:1045F0001F03909120030E9407068017910770F017
:10460000E0911F03F09120030E0F1F1F1093200352
:1046100000931F038FE193E0F4010995E0912703D4
:10462000EE0FEE0FE093270389B182FBEE24E0F852
:10463000499965C280E08E29E82BE0932703EF704B
:10464000F0E0EE57FE4F808190912603890F809312
:10465000260384302CF1809125038F5F80932503FE
:1046600012E018AB19AA81E08AAB0E94160681609D
:10467000782F9CAB8BAB48A959A96AA98CA90E9439
:104680003D1F1BA71CA61DA60E9416068160782F41
:104690009FA78EA74BA55CA56DA58FA50E943D1F6A
:1046A000809126038D3F24F58091250381508093CE
:1046B00025031EA21FA281E088A70E941606816022
:1046C000782F9AA789A74EA15FA168A58AA50E9405
:1046D0003D1F19A21AA21BA20E9416068160782F04
:1046E0009DA38CA349A15AA16BA18DA10E943D1F3E
:1046F00080912603837887FF03C081508C6F8F5F82
:104700008093260386E0EFE2F3E0DE01119601904C
:104710000D928A95E1F78091310390913203892BB4
:1047200009F468C080912D0390912E030E94070622
:104730009C0190912C03992309F4CFC323333105B5
:1047400008F458C09F3F19F09F5F90932C0310927C
:1047500033031092340380913103181624F40E941D
:104760007F05809331038091310387FF05C00E944C
:104770007F0581958093310380913203181624F4CC
:104780000E947F05809332038091320387FF05C02A
:104790000E947F058195809332033091310333234A
:1047A000B1F020913203222391F045EB3403C00194
:1047B0001124992309F4A6C19093310345EB2403F6
:1047C00090011124332309F4A1C1309332030E94D4
:1047D000220680912A0390912B0390932E038093BD
:1047E0002D0386E0FE013196AFE2B3E001900D9219
:1047F0008A95E1F78091330390913403892B09F472
:1048000068C080912803909129030E9407069C01AB
:1048100090912C03992309F45BC32536310508F4E4
:1048200058C09F3F19F09F5F90932C031092310363
:104830001092320380913303181624F40E945D0510
:10484000809333038091330387FF05C00E945D0589
:1048500081958093330380913403181624F40E94C9
:104860005D05809334038091340387FF05C00E9467
:104870005D05819580933403309133033323B1F088
:1048800020913403222391F045EB3403C00111241D
:10489000992309F43FC19093330345EB240390011E
:1048A0001124332309F43AC1309334030E942206C1
:1048B00080912A0390912B039093290380932803DE
:1048C00086E0FE013196AFE2B3E001900D928A9549
:1048D000E1F70E94A50790913503891731F00E94F6
:1048E000A507809335030E94F31680917F038430DF
:1048F00009F019CE83E08093E9008091E80082FFFF
:1049000012CE8091E80090E085FF06C00E943F0330
:10491000882309F407C191E08091E8008B778093A8
:10492000E800992309F4FFCDE981E150E33108F073
:1049300058C1F0E0ED59F64D0C94FF2792E0CBCD35
:1049400080917F03843009F444C010921E0388E1F3
:1049500090E020E40FB6F894A895809360000FBE15
:104960002093600080E00E94F31610923E03809135
:104970005103811117C081E08093510380914B0353
:10498000982F9170909350038E7F80934B034FEF3D
:1049900080E792E0415080409040E1F700C0000085
:1049A0000E94161283B7817F846083BF83B78160C2
:1049B00083BF7894889583B78E7F83BF0FB6F894B2
:1049C000A8958091600088618093600010926000DB
:1049D0000FBE80917503882309F4A5CD0E940E0BAC
:1049E000E0E4F3E08191811147C2BE12FBCF9BCD81
:1049F0009F5F990C943009F0AECD0F5F1F4F0630CA
:104A0000110509F09DCD8FEF8AAF8BAF1CAE0E94D0
:104A100016068160782F9EAF8DAF4AAD5BAD6CAD51
:104A20008EAD0E943D1FB4CD863059F4F0E0E15FB9
:104A3000FA4FE4910E2F10E0BAE28B2EB5E19B2ED7
:104A4000C1CD893061F4E695F0E0E45FFA4FE4917E
:104A50000E2F10E0A9E58A2EA3E19A2EB3CD8F3058
:104A600061F4E695F0E0E75FFA4FE4910E2F10E075
:104A7000F3E88F2EF3E19F2EA5CD853159F4F0E0B8
:104A8000EA5FFA4FE4910E2F10E0E1EF8E2EE3E1A2
:104A90009E2E98CD08EE13E05FE3852E54E1952E0F
:104AA000883109F48FCD833241F4F60105911491D8
:104AB0007DEB872E74E1972E85CD04EF11E043E75F
:104AC000842E44E1942E843209F47CCD00ED17E06D
:104AD0003AED832E34E0932E853209F073CD8E2F7C
:104AE00063E00E94BD27E92FF0E0EF5FFA4FE49109
:104AF0000E2F10E060ED862E62E1962E63CD82E0EF
:104B000090E099CD81E08093310358CE81E080938D
:104B100032035DCE81E080933303BFCE81E080938A
:104B20003403C4CE00E210E0CE0101964C01809126
:104B3000E80085FD0AC08091E8008B778093E8004B
:104B40000E943F03882399F3E6CE8091F100F4019F
:104B500081934F010150110951F7DDCE1A8289E08E
:104B60008B832CC08A81823009F4A9C18330A1F0E3
:104B70008130B9F52FB7F8946091460370914703DF
:104B800080914803909149032FBF0E9405286B83B1
:104B90007C838D839E8312C0809140038B838091A0
:104BA00041038C83809142038D83809143038E83E4
:104BB000809144038F83809145038887CE010196BD
:104BC0000E949A03B0CC8A81823059F46B817C8137
:104BD0008D819E810E94052885E290E00E949228A6
:104BE000EDCF8FEF8983EACF4C816B818A810E9460
:104BF000CB0B9827892798279E838D83DFCF8D80C5
:104C00009E809824892498248A810B81F8E00F9F44
:104C10008001112420E3829F000D111D11248C813D
:104C200090E0880F991F080F191F692DC8018696FB
:104C30000E949228682DC8018796D0CF0E94F80D57
:104C4000BDCF8A818138C1F060F4803809F0B6CFD9
:104C500020E04B8160914D0380914C030E943A15F6
:104C6000ADCF823859F1833809F0A8CF20E04091C8
:104C70004E036C818B81F2CF60E08B810E94CF1557
:104C80009B8180914B03911111C08E7F80934B03C8
:104C900010923E034FEF80E792E0415080409040F9
:104CA000E1F700C000000E94161288CF8160809357
:104CB0004B0360E086950E94CF1580CF8B81809357
:104CC0004F037CCF8A81813899F030F4803809F025
:104CD00075CF80914E0344CF823891F0833809F02C
:104CE0006DCF80914C038B8380914D038C8366CF75
:104CF00080914B0380FF02C0869532CF80E030CF99
:104D000080914F032DCF60914B0370914C038091A4
:104D10004D0390914E030E94D50E50CF80E18A83BF
:104D20004DCF82E08A838AE81BCF0A811B8110273E
:104D300001271027FE0131963F018C80CF01880D9D
:104D4000911D4C01C8018A589E4F6814790409F4DA
:104D500035CF0A38E2E01E0750F40E947E28F301A6
:104D600084830F5F1F4FFFEF6F1A7F0AEBCFF301B2
:104D70001482F7CF0A811B81102701271027CE014B
:104D800001963C018C80800E912E911CC8018A589E
:104D90009E4F0815190509F411CF0A38E2E01E07E5
:104DA00020F4F30164810E949228FFEF6F1A7F0ABA
:104DB0000F5F1F4FEBCF0E944A0E00CF87E0AFCFAF
:104DC0000A811B81102701271027CE0101963C0183
:104DD0008C80FC01E80DF11D4F01C80186968614F8
:104DE000970409F4EBCE0035F1E01F0750F40E9460
:104DF0007E28F30184830F5F1F4FFFEF6F1A7F0A36
:104E0000ECCFF3011482F7CF0A811B811027012711
:104E10001027CE0101963C018C80800E912E911CB2
:104E2000C80186968016910609F4C8CE0035E1E0E7
:104E30001E0720F4F30164810E949228FFEF6F1A8D
:104E40007F0A0F5F1F4FECCF80E00E945A0E6FEF7A
:104E50007FEF90E080E00E94B028B0CECE010196B6
:104E60000E949A032FEF41EE84E0215040408040A1
:104E7000E1F700C00000ABCA80E189BD82E189BDD5
:104E800009B400FEFDCF8091D8008F7D8093D800BB
:104E90008091E00082608093E0008091E00081FDDD
:104EA000FCCF41CB60E085E290E00E9492280E9416
:104EB000F80D0E944A0E81E00E945A0EA8CA85E2AF
:104EC00090E00E947E281B821C821D828E8376CEFB
:104ED0002D32314008F0A7CCFCCC2D32314008F007
:104EE00033CC88CC78941F921FB61F9211248F93D5
:104EF0009F93AF93BF938091460390914703A091F6
:104F00004803B09149030196A11DB11D809346034A
:104F100090934703A0934803B0934903BF91AF9187
:104F20009F918F911F901FBE1F9018951F921FB6C3
:104F30001F9211248F939F93AF93BF9380911E0371
:104F4000811113C08091460390914703A0914803BB
:104F5000B09149034196A11DB11D809346039093E2
:104F60004703A0934803B0934903BF91AF919F912A
:104F70008F911F901FBE1F901895991B79E004C058
:104F8000991F961708F0961B881F7A95C9F7809588
:104F9000089587FB082E062687FD819567FD61959C
:104FA0000E94BD270EF4919507FC81950895AA1BD8
:104FB000BB1B51E107C0AA1FBB1FA617B70710F004
:104FC000A61BB70B881F991F5A95A9F78095909536
:104FD000BC01CD01089597FB072E16F4009407D06D
:104FE00077FD09D00E94D72707FC05D03EF49095A5
:104FF00081959F4F0895709561957F4F0895EE0FAD
:10500000FF1F0590F491E02D0994692796276927E1
:1050100078278727782708958F929F92AF92BF9223
:10502000CF92DF92EF92FF92CF93DF93EC016881F2
:1050300079818A819B81611571058105910521F432
:1050400064E279ED8BE597E02DE133EF41E050E04C
:105050000E94C62849015A019B01AC01A7EAB1E4AC
:105060000E94E5286B017C01ACEEB4EFA501940130
:105070000E94F328DC01CB018C0D9D1DAE1DBF1DD0
:10508000B7FF03C00197A109B04888839983AA8319
:10509000BB839F77DF91CF91FF90EF90DF90CF9010
:1050A000BF90AF909F908F9008950E940C28089514
:1050B00080E091E00E940C280895B0E0A0E0809389
:1050C000000190930101A0930201B09303010895A0
:1050D000FB01DC0102C005900D9241505040D8F711
:1050E0000895FC014150504030F001900616D1F770
:1050F0003197CF010895882799270895F999FECF10
:1051000092BD81BDF89A992780B50895A6E1B0E0D7
:1051100044E050E00C94B828A8E1B0E042E050E050
:105120000C94B828262FF999FECF92BD81BDF89A2C
:10513000019700B4021639F01FBA20BD0FB6F894DB
:10514000FA9AF99A0FBE08950396272F0E94932882
:105150000E949228252F0E949328242F0C94932894
:105160000196272F0E9493280C949228DC01CB01F2
:10517000FC01F999FECF06C0F2BDE1BDF89A319667
:1051800000B40D9241505040B8F70895052E97FB9A
:105190001EF400940E94DD2857FD07D00E94F828D5
:1051A00007FC03D04EF40C94DD28509540953095C3
:1051B00021953F4F4F4F5F4F089590958095709583
:1051C00061957F4F8F4F9F4F08950E941A29A59F89
:1051D000900DB49F900DA49F800D911D11240895F2
:1051E000B7FF0C94E5280E94E528821B930B0895D5
:1051F000A1E21A2EAA1BBB1BFD010DC0AA1FBB1FDB
:10520000EE1FFF1FA217B307E407F50720F0A21B4C
:10521000B30BE40BF50B661F771F881F991F1A94B9
:1052200069F760957095809590959B01AC01BD01E3
:10523000CF010895A29FB001B39FC001A39F700D3D
:10524000811D1124911DB29F700D811D1124911D8E
:105250000895F894FFCFE30DE30DEC0DEC0DEE0D8A
:10526000EC0DEC0DEC0DE30DE30DF30DEC0DEC0D81
:10527000F30D13103B108E103B108E106E10A61005
:105280008E10AE11BB11AD1AAD1A1E1B1E1B741B66
:105290008E1BE21AE21A991B6F1C7E1C7E1CD4190D
:1052A000FB19021A071A0C1A111A161A1B1A201ABD
:1052B000251A2A1A2F1A321A371A3A1A3D1A401A80
:1052C000431A461A491AAE25B225E325F425FF25CF
:1052D0001E2621266226832624272E278E26912607
:0C52E0009526BA26DB26DE26E0260427F1
:1052EC000100000001191A1B1C1D1E1F2021220188
:1052FC0002DB0478094D0949093709010001020252
:10530C0002020606060909090909090F0F0F0F0FFA
:10531C000F151515181919191919191919191923FE
:10532C0024252525252525818283E200E900EA0034
:10533C00B500B600B700CD008301CC008A01920104
:10534C0094012102230224022502260227022A02AA
:10535C00B300B4006F007000F03435366667F6F7B2
:10536C00939600FF0100010000FFFF000001000107
:10537C00FF004022BCB2019001D400280541056118
:02538C0005001A
:00000001FF
