:100000000C94BE020C9405030C9405030C94050398
:100010000C9405030C9405030C9405030C94050340
:100020000C9405030C9405030C94A0200C945C2004
:100030000C94E0270C9405030C9405030C94050321
:100040000C9405030C9405030C9405030C94050310
:100050000C9405030C94BC270C9405030C94050325
:100060000C9405030C9405030C9405030C940503F0
:100070000C9405030C9405030C9405030C940503E0
:100080000C9405030C9405030C9405030C940503D0
:100090000C9405030C9405030C9405030C940503C0
:1000A0000C9405030C9405030C9405030501090247
:1000B000A10185020901A100050919012905150001
:1000C00025019505750181029501750381010501E1
:1000D000093009311581257F950275088106093897
:1000E0001581257F950175088106050C0A380215D2
:1000F00081257F950175088106C0C005010980A191
:1001000001850319012AB700150126B7009501756D
:10011000108100C0050C0901A101850419012AA064
:1001200002150126A002950175108100C005010984
:1001300006A1018505050719E029E71500250195A8
:1001400008750181020507190029EF1500250195A1
:10015000F0750181020508190129059505750191C0
:1001600002950175039101C00660FF0961A10109B3
:1001700062150026FF0095207508810209631500AD
:1001800026FF00952075089102C005010906A1010E
:10019000050719E029E71500250195087501810279
:1001A0009501750881010507190029FF150026FF33
:1001B0000095067508810005081901290595057542
:1001C000019102950175039101C000010101010136
:1001D0000101010102020202020202020203030300
:1001E00003030303030404040404040405050505D0
:1001F0000506060606060707070707080808080990
:100200000909090A0A0A0B0B0B0C0C0C0D0D0D0E3B
:100210000E0E0F0F0F1010111111121213131414D0
:10022000151516161717181819191A1A1B1B1C1D45
:100230001D1E1E1F2020212222232424252626279E
:100240002829292A2B2C2D2D2E2F303132323334D0
:1002500035363738393A3B3C3D3E3F4041424344D6
:1002600045464748494A4C4D4E4F505153545556B8
:1002700058595A5B5D5E5F616264656668696B6C64
:100280006D6F7072737577787A7B7D7E80828385DF
:1002900087888A8C8E8F91939596989A9C9EA0A21F
:1002A000A3A5A7A9ABADAFB1B3B5B7BABCBEC0C229
:1002B000C4C6C9CBCDCFD1D4D6D8DBDDDFE2E4E7ED
:1002C000E9EBEEF0F3F5F8FAFDFFFFAA7F554022C7
:1002D00023252628292A2C2D2F3032333536383A3B
:1002E0003B3D3E4042434547494A4C4E5051535591
:1002F00057595A5C5E6062646668696B6D6F7173B2
:100300007577797B7D7F81838587898A8C8E9092B2
:100310009496989A9C9E9FA1A3A5A7A8AAACAEAFBD
:10032000B1B3B4B6B8B9BBBCBEBFC1C2C3C5C6C702
:10033000C9CACBCCCDCED0D1D2D2D3D4D5D6D7D7B3
:10034000D8D9D9DADADBDBDBDCDCDCDCDCDDDDDDFB
:10035000DDDCDCDCDCDCDBDBDBDADAD9D9D8D7D7F7
:10036000D6D5D4D3D2D2D1D0CECDCCCBCAC9C7C6A4
:10037000C5C3C2C1BFBEBCBBB9B8B6B4B3B1AFAEE2
:10038000ACAAA8A7A5A3A19F9E9C9A989694929088
:100390008E8C8A89878583817F7D7B797775737160
:1003A0006F6D6B6968666462605E5C5A595755533D
:1003B00051504E4C4A4947454342403E3D3B3A38F6
:1003C00036353332302F2D2C2A292826252322AAF0
:1003D000000151A900000053005400550056005F71
:1003E000006000610057005C005D005E0000005985
:1003F000005A005B00580062000000630000000427
:1004000000010005000000C25CC35CCA5CC95C015D
:1004100000010001000100010001000100000001D5
:1004200000010001000100010000000100000000C7
:1004300000000000000000000000000000000000BC
:100440000000007E0F00D4FFFFFFC700000078000F
:10045000000000000000002A2B280000000000001F
:100460000000000000000000000029000000002C37
:100470001E3420212224342627252E362D373827D6
:100480001E1F202122232425263333362E37381FE2
:100490000405060708090A0B0C0D0E0F10111213A4
:1004A0001415161718191A1B1C1D2F3130232D3542
:1004B0000405060708090A0B0C0D0E0F1011121384
:1004C0001415161718191A1B1C1D2F3130354C32F4
:1004D000190A00047F3F1F643214643214783C1EF2
:1004E0001E140A0509025B00030100A0FA090400BA
:1004F0000001030101000921110100012240000750
:1005000005810308000A0904010002030000000934
:1005100021110100012222000705820320000107AA
:100520000503032000010904020001030000000983
:10053000211101000122BC000705840320000A12DA
:10054000011001000000084B4115000100010203E9
:10055000010403300000000A03500053003100374B
:100560000000001203410074006C0061006E007412
:1005700000690073000000040309040011241FBE79
:10058000CFEFDAE0DEBFCDBF04B603FE27C0809117
:100590008B0690918C06A0918D06B0918E068730C7
:1005A000904BA740B04BD1F410928B0610928C0662
:1005B00010928D0610928E0614BE84B7877F84BF7A
:1005C0000FB6F894A89580916000886180936000D0
:1005D000109260000FBEE0E0F8E3099526E0A6EA7D
:1005E000B1E001C01D92AB38B207E1F711E0A0E025
:1005F000B1E0EEE6F3E502C005900D92A63AB10730
:10060000D9F70E948E210C946A290C940000E8ED21
:10061000F0E080818E7F80831092E2001092DA00F9
:100620001092E100A0EEB0E08C9181608C9380810B
:100630008F77808319BCA7EDB0E08C918E7F8C936F
:1006400080818F7E80831092510608952091E4006E
:100650003091E50095E6A9012091EC00822F817090
:1006600020FF06C08091E80080FF06C080E008956A
:100670002091E80022FD1AC080918606882389F027
:10068000853089F08091EB0085FD0FC02091E4005A
:100690003091E50042175307F9F29150E1F684E0FA
:1006A000089582E0089583E0089581E00895EF922F
:1006B000FF920F931F93CF937C018B010E9426031F
:1006C000C82F811117C08091E80085FD0BC0809173
:1006D000E8008E778093E8000E942603882399F330
:1006E000C82F08C0F70181917F018093F10001506C
:1006F000110949F78C2FCF911F910F91FF90EF9027
:100700000895CF93FC0180918606843001F5C09155
:10071000E900CF702091EC00922F917020FD90E8BD
:10072000C92B82E08093E9008091E80080FF0CC033
:1007300050E040E060E270E0CF010E9457038091FA
:10074000E8008E778093E800CF70C093E900CF91E6
:10075000089580917E0687FF13C08091E80082FF94
:1007600006C08091E8008B778093E80004C08091F8
:1007700086068111F2CF0895809186068823D9F3E9
:100780008091E80080FFF8CF8091E8008E77ECCF71
:10079000982F9093E900242F762F50E0891731F09D
:1007A0007091EC002091ED005091F00021FD07C008
:1007B0009F5F973071F78093E90081E00895309151
:1007C000EB003E7F3093EB003091ED003D7F3093A6
:1007D000ED003091EB0031603093EB007093EC0052
:1007E0002093ED005093F0002091EE0027FDE0CF24
:1007F00080E00895CF92DF92EF92FF920F931F93C4
:10080000CF93DF93C8EDD0E088818F7E8883E7EDBA
:10081000F0E080818160808384E082BF81E080930A
:10082000510688818E7F888302EE10E0F8011082E5
:100830001092DA0081EEC82ED12CF6011082888148
:100840008F77888388818068888388818F7D88837B
:1008500019BC1092860610927D0610927C061092AA
:100860007B0690EEE92EF12CF70180818B7F80834F
:1008700088818160888342E060E080E00E94C80354
:10088000F60180818E7F8083F80180818160808382
:10089000808188608083F70180818E7F808388815A
:1008A00080618883DF91CF911F910F91FF90EF902E
:1008B000DF90CF900895FC01809184069091850689
:1008C00086179707A0F06115710529F49091E8004B
:1008D0009E779093E80090E06115710551F49111B5
:1008E00008C08091E80082FF34C080E00895BC0118
:1008F000F2CF809186068823C1F18530C1F18091C5
:10090000E80083FD30C08091E80082FDEACF80914D
:10091000E80080FFE1CF8091F3002091F200382FB2
:100920006115710519F02830310558F091E0283033
:10093000310509F090E02091E8002E772093E8003F
:10094000CBCF81918093F100615071092F5F3F4FB0
:10095000E7CF80918606882341F0853041F0809171
:10096000E80083FFBECF81E0089582E0089583E030
:10097000089580918606843011F482E0089581E024
:100980000895089580915A06089590913906803F00
:1009900041F480913A0687FD10923A06992371F04E
:1009A0000895813F29F480913A061816ACF3F6CFEA
:1009B000823F81F497FFF2CF1092390680913A0678
:1009C00090913B06892B90913C06892B49F7109218
:1009D00034060895833F19F4191674F3DFCF893F65
:1009E00039F480913B061816CCF610923B06D6CF10
:1009F0008A3F29F480913B0687FFD0CFF6CF8B3F0B
:100A000039F480913C0687FFC9CF10923C06C6CFCF
:100A10008C3F29F480913C061816BCF3BFCF843F6D
:100A200031F4809138068E7F80933806B7CF853FAA
:100A300021F4809138068D7FF7CF863F21F4809195
:100A400038068B7FF1CF873F21F480913806877F6E
:100A5000EBCF883F21F4809138068F7EE5CF8D3F24
:100A600031F480911A068E7F80931A0697CF8E3FBD
:100A700021F480911A068D7FF7CF8F3F09F08ECF3A
:100A800080911A068B7FF0CF80911A0680FD16C0E8
:100A900081FD16C082FD16C0809134068823A1F026
:100AA000883280F428E0829FC001112468E270E05F
:100AB0000E943528862F672B39F0089582E008952B
:100AC00084E0089588E0089581E0089580911A06F1
:100AD00080FD14C081FD14C082FD16C080913406D3
:100AE000882381F0843180F422E3829FC0011124A5
:100AF00064E170E00E943528862F08958CE0089507
:100B000089E1089585E0089582E30895803F31F4F6
:100B10000E946605819580933A060895813F19F4F5
:100B20000E946605F8CF823F31F40E9466058195E8
:100B3000809339060895833F19F40E946605F8CF23
:100B4000893F29F40E94440580933B0608958A3F1B
:100B500021F40E9444058195F7CF8B3F31F40E9428
:100B60004405819580933C0608958C3F19F40E94BA
:100B70004405F8CF843F31F480913806816080933A
:100B800038060895853F21F4809138068260F7CFBA
:100B9000863F21F4809138068460F1CF873F21F4AD
:100BA000809138068860EBCF883F21F48091380629
:100BB0008061E5CF8D3F31F480911A06816080938A
:100BC0001A0608958E3F21F480911A068260F7CFAD
:100BD0008F3FB9F780911A068460F1CF9C014FB71F
:100BE000F89480914D0690914E06A0914F06B091D9
:100BF00050064FBF821B930B08952FB7F894809136
:100C00004D0690914E06A0914F06B09150062FBF11
:100C10000895E0912406F0912506309749F082E08E
:100C2000809337060480F581E02D87E396E00995EF
:100C30000E94FD05909333068093320608958091BB
:100C40001506811110921506089580911406909151
:100C50001306892B90911206892B8093A6019091FF
:100C600015069923A1F0892B8093A60180911F017D
:100C7000882341F18091220687FF24C08EE1E8EAB3
:100C8000F1E090E0815000F591110E941F06E09183
:100C90002406F09125063097E1F080911F0188230A
:100CA00059F08091220687FF07C08091A6018093AA
:100CB000A70185E08093A6010280F381E02D86EAFA
:100CC00091E0099486E0DBCF21912223D9F29F5F46
:100CD000D9CF089590911F019923D1F090912206C8
:100CE00097FF16C0E82FE695E695E695EE31E0F41D
:100CF000F0E0EA55FE4F282F277081E090E001C018
:100D0000880F2A95EAF78095928189238283089536
:100D1000E8EAF1E09191891303C0DF0111971C9279
:100D200091E0EE3AF907B1F7089590911F019923E8
:100D3000C1F09091220697FF14C0E82FE695E69542
:100D4000E695EE31F8F4F0E0EA55FE4F877021E0C9
:100D500030E001C0220F8A95EAF78281822B8283DC
:100D60000895A8EAB1E0EFEF90E02D91821751F0DD
:100D7000EF3F19F4211101C0E92F9F5F9630A9F7C9
:100D8000EF3F09F408950E2E000CFF0BEA55FE4FBD
:100D9000E6CF990F990F890F982F977086958695B2
:100DA000869525E0829FF0011124EE5FF94F50E017
:100DB00040E080E0219130E0092E02C03695279571
:100DC0000A94E2F721703327042E01C0220F0A94FF
:100DD000EAF7822B4F5F5F4F4530510559F7089571
:100DE000990F990F890F982F977041E001C0440F18
:100DF0009A95EAF786958695869595E0899FF00104
:100E00001124EE5FF94F30E020E070E05191DF01F6
:100E10001197CB01022E02C0969587950A94E2F7AE
:100E2000817081958527842385278C932F5F3F4F81
:100E30002530310559F70895809101069091D0052C
:100E4000981301C008958F5F8770FACF882341F00F
:100E50008095909114068923809314060C9425069E
:100E60000895882339F090911406982B90931406D6
:100E70000C94250608952091C0023091C1022817D4
:100E8000390771F09093C1028093C002E09124066B
:100E9000F0912506309721F00084F185E02D09942A
:100EA00008952091BE023091BF022817390771F0D2
:100EB0009093BF028093BE02E0912406F091250634
:100EC000309721F00680F781E02D09940895109263
:100ED0001306109212060E94250686E0E7E3F6E06C
:100EE000DF011D928A95E9F71092340610921A06D6
:100EF0000E94090690E080E00E94510790E080E0A7
:100F00000C943B076093870670938806809389064C
:100F100090938A060C9467070F931F93609187063E
:100F2000709188068091890690918A068B019C01B8
:100F300006701127222733270630110521053105B8
:100F400029F468601F910F910C948207677FFACF94
:100F50000F931F9341E050E060E070E004C0440F45
:100F6000551F661F771F8A95D2F7CB01BA0160958E
:100F70007095809590950091870610918806209134
:100F8000890630918A0660237123822393231F915F
:100F90000F910C948207909111068095892380937C
:100FA0001106282F277071F4282F082E000C330B00
:100FB0009217130639F08595859585950E94A807A7
:100FC0001092110608950F931F9341E050E060E0E6
:100FD00070E004C0440F551F661F771F8A95D2F733
:100FE0008091870690918806A0918906B0918A0623
:100FF0008A019B01082B192B2A2B3B2BC901B80115
:101000001F910F910C94820760E070E0CB010C946B
:1010100082076093160670931706809318069093C4
:1010200019060C946707E0912406F0912506309785
:1010300021F00190F081E02D099480E0089588234B
:1010400009F459C0823871F40E94130881FF53C01B
:1010500089E30E9495060E94250689E30E946A069C
:101060000C942506833859F40E94130880FF43C06E
:1010700083E50E9495060E94250683E5EFCF84381C
:1010800059F40E94130882FF36C087E40E94950637
:101090000E94250687E4E2CF9CEF980F913AF0F288
:1010A00090E2980F983088F4877021E030E0A90131
:1010B00002C0440F551F8A95E2F7CA0180959091AE
:1010C0001406892380931406CBCF9BE5980F9330A9
:1010D00020F490E080E00C94510798E5980F973148
:1010E00020F490E080E00C943B07803F20F00E94C9
:1010F000C5040C9409060895FA01811101C0FB0191
:10110000099480915206982F9E7F61F481708260CD
:101110008093520680915506893C18F088EC8093A4
:10112000550608958635B0F381708465F1CFAF928E
:10113000BF92DF92EF92FF920F931F93CF93DF93B3
:10114000182F062FE901493C08F048ECE42FF0E0A5
:10115000E653FE4F011110C0E4915E2F4E2F4983DC
:10116000E8835A83DF91CF911F910F91FF90EF9009
:10117000DF90BF90AF900895202F30E04491D42E9F
:10118000E42EF12C56E0159FC0011124EFEFF0E0A2
:10119000BF010E942128812F90E0880F991F55E5FB
:1011A000569FD001579FB00D11248A1B9B0B982F7F
:1011B000990F890F5F01A21AB30AAE9CD001AF9CB0
:1011C000B00DBE9CB00D11245B2F089F800111242F
:1011D000012F11275F01A01AB10AAE9C8001AF9CBC
:1011E000100DBE9C100D11245F01A81AB108A29E1B
:1011F000C001A39E900DB29E900D1124892F9927B6
:10120000E81BF90BEE9DC001EF9D900DFE9D900D2A
:101210001124E92F62307105A1F050F461157105B8
:1012200009F49DCF6130710581F0EB2F512F97CFDD
:101230006430710569F080F06630710509F48FCF74
:10124000F4CFE42F4B2F592F8ACFE42F412F87CF94
:10125000EB2F542F492F83CF4B2F5D2DE12F7FCFC5
:101260009091220692FF06C0282F28712830F9F4A9
:10127000877F846093FF06C0282F28712831F1F4FE
:10128000877E84612091230620FF06C0382F3871A5
:101290003830D9F4877F816021FF06C0282F28715C
:1012A0002831D1F4877E816194FD877E0895282FAF
:1012B00024712430F9F68B7F8860DCCF282F2471CD
:1012C000243101F78B7E8861DDCF382F31713130C9
:1012D00019F78E7F8860E0CF282F2171213121F707
:1012E0008E7E8861E1CF80FF0BC0509A589881FFB5
:1012F00009C0559A5D9882FF07C0549A5C9808957A
:101300005098F4CF5598F6CF5498F8CFCF93DF93F9
:1013100000D00F92CDB7DEB790918606943011F5CC
:1013200089837B836A839093E9008FEF9091E80033
:10133000815095FD06C095ED9A95F1F70000811159
:10134000F5CF8091E80085FF0DC050E040E063E0FC
:1013500070E0CE0101960E9457038091E8008E77DD
:101360008093E8000F900F900F90DF91CF91089538
:10137000CF93DF93EC010E94B904823011F08430E6
:1013800031F4BE0184E0DF91CF910C948609DF91A6
:10139000CF910895BC0183E00C948609CF93DF932D
:1013A000EC010E94B904823011F08430F9F484E039
:1013B0008093E9008FEF9091E800815095FD06C081
:1013C00095ED9A95F1F700008111F5CF8091E80035
:1013D00085FF0CC050E040E066E070E0CE010E9466
:1013E00057038091E8008E778093E800DF91CF91DA
:1013F0000895CF93DF93EC010E94B904823011F07D
:101400008430B9F580911F018823B1F180912206C3
:1014100087FF32C060E284E08093E9008FEF909113
:10142000E800815095FD06C095ED9A95F1F7000012
:101430008111F5CF8091E80085FF1BC080911F01CD
:1014400070E050E040E0811104C050E040E068E00E
:1014500070E0CE010E9457038091E8008E77809360
:10146000E80080E2FE01ABE5B6E001900D928A95BE
:10147000E1F7DF91CF91089568E081E0CDCF81E081
:101480008093E00080E28093D8001092C9008FE141
:101490009EE40197F1F700C0000087E090EBDC01CB
:1014A00080938B0690938C06A0938D06B0938E0646
:1014B00088E19CE00FB6F894A895809360000FBE79
:1014C00090936000FFCFCF93C82F882309F4AEC05C
:1014D0008238C1F40E94130881FDA8C089E30E94EC
:1014E00095060E9425062FEF81EE94E02150804062
:1014F0009040E1F700C0000089E30E946A06CF91A6
:101500000C9425068338A1F40E94130880FD8EC038
:1015100083E50E9495060E9425062FEF81EE94E058
:10152000215080409040E1F700C0000083E5E5CF06
:101530008438A1F40E94130882FD78C087E40E94D9
:1015400095060E9425062FEF81EE94E02150804001
:101550009040E1F700C0000087E4CFCF8CEF8C0F04
:10156000813A88F580911F01882301F1809122063C
:1015700087FF1CC0EC2FE695E695E695F0E0EA556E
:10158000FE4F828190E04C2F477021E030E002C096
:10159000220F331F4A95E2F782239323892B79F098
:1015A0008C2F0E946A060E94250609C0E8EAF1E035
:1015B0008191C817A9F321E0EE3AF207C9F78C2F01
:1015C0000E9495069CCF80E28C0F883068F4C7702B
:1015D00021E030E001C0220FCA95EAF7809114069D
:1015E000822B809314068BCFEBE5EC0FE33040F4B5
:1015F000F0E0E55BFE4F808190E0CF910C945107C5
:10160000E8E5EC0FE73150F4F0E0EE0FFF1FE25B8E
:10161000FE4F80819181CF910C943B07C03F30F009
:101620008C2F0E948605CF910C940906CF910895C6
:10163000CF93C82F0E94630AC93349F42FEF87EE76
:1016400093E0215080409040E1F700C000008C2FD3
:10165000CF910C941F080F931F93CF93DF93C62F46
:10166000D42F022FFC0182818823A1F06093C8054A
:101670000E94FD059093BD028093BC02C77081E07B
:1016800001C0880FCA95EAF7DF91CF911F910F91A2
:101690000C9431071091C805161335C08091BC0217
:1016A0009091BD020E94EE05883C910560F5C0E274
:1016B000CD0F1D17B9F080E2810F883040F417700C
:1016C00081E001C0880F1A95EAF70E942607C8300A
:1016D00048F481E09D2F977001C0880F9A95EAF732
:1016E0000E943107802F0E94180BC83098F4D770E1
:1016F00081E001C0880FDA95EAF7DF91CF911F9161
:101700000F910C942607C77081E001C0880FCA951D
:10171000EAF7F3CFDF91CF911F910F910895809158
:10172000520680FD0AC0ECECF1E0118210821282B8
:10173000339652E0E632F507C1F7279A35B13F7785
:1017400025B120684FB7F8948CEC91E0FC015191E1
:10175000CF0168E025B9000000C057FF35B9550F2B
:10176000000000C000C000C035B900C06A9591F704
:10177000F2E086329F0751F74FBF8FE594E0019763
:10178000F1F700C000000895EF92FF921F93CF93EE
:10179000DF93EC018CECE82E81E0F82E10E08C81D8
:1017A00097014091550660915406810F0E94970859
:1017B000185F83E0E80EF11C103F89F70E948F0B41
:1017C0009A818C8190FF08C08F5F8C83DF91CF91CD
:1017D0001F91FF90EF9008958150F7CFBF92CF9265
:1017E000DF92EF92FF920F931F93CF93DF93FC0151
:1017F0008281DD24DA9480FD02C0DD24D3940CECD8
:1018000011E0D0E0C0E02EE1B22EF801118210828A
:10181000128294E0E92EF12CC12C8091C9018C0D2B
:101820008F310CF43DC06B2D0E941328892F082E98
:10183000000C990B8C179D0791F4809155068E9D95
:10184000A0018F9D500D11245595479555954795AD
:10185000980160915406809153060E949708CD0C20
:10186000F1E0EF1AF108C9F621960D5F1F4FCE3156
:10187000D10559F60E948F0B8091C90191E0D912D0
:1018800015C0811111C08DE18093C901DF91CF9105
:101890001F910F91FF90EF90DF90CF90BF90089530
:1018A00087FFC5CF825EC3CF8150EECF90E0019617
:1018B000BE010E943528E8CF0F931F93CF93DF938B
:1018C000CCECD1E0FE01118210821282339682E0CC
:1018D000E632F807C1F710E000E08091CA01082E57
:1018E000000C990B081719078CF180911001082E34
:1018F000000C990B801791074CF19E014091550601
:1019000060915406809153060E9497080F5F1F4F05
:1019100023960E31110509F70E948F0B80910F015C
:101920009091CA01980F9093CA0120911001280F3D
:1019300020931001121614F49D311CF081958093B0
:101940000F01DF91CF911F910F9108951982188295
:101950001A82DCCFEF92FF920F931F93CF93DF9306
:10196000EC018C819D810196817099279D838C83E8
:101970008CECE82E81E0F82E10E005E5812F8695AD
:101980002C813D81820F932F911D81709701409191
:10199000550660915406809F802D11240E9497085F
:1019A0001F5F83E0E80EF11C1E3141F7DF91CF91FC
:1019B0001F910F91FF90EF900C948F0BEF92FF927D
:1019C0000F931F93CF93DF938C01CCECD1E0F12CDC
:1019D000E12CF80194816091540680915306FFE058
:1019E000EF16F104FCF49923F9F09E01409155069D
:1019F0000E9497082FEFE21AF20A23968EE1E8166A
:101A0000F10439F70E948F0BF801848190E0019670
:101A1000817099278483DF91CF911F910F91FF905F
:101A2000EF900895992309F39E0140E0E1CF909152
:101A3000520690FF0CC0ECECF1E08183608342839E
:101A4000339692E0E632F907C1F70C948F0B0895B4
:101A50000F931F93CF93DF9300D00F92CDB7DEB7D4
:101A60008C018091CB0181110AC09E012F5F3F4FF5
:101A700048EC6FEF0E9497088A818093CB01F801B0
:101A80006481613069F08091CB0140E0662361F0B0
:101A900040E0623011F44091CB0180E060E004C08E
:101AA0006091CB0140E080E00E94170DF801848135
:101AB00090E0019663E070E00E94352884830F90E7
:101AC0000F900F90DF91CF911F910F910895CF93B9
:101AD000DF9300D00F92CDB7DEB79091520690FF02
:101AE0000AC09E012F5F3F4F0E9497084B8169817A
:101AF0008A810E94170D0F900F900F90DF91CF9168
:101B00000895CF93DF93EC01EC81F0E0E153FD4FBA
:101B10004491E2E5F6E0628181810E94670D8C814B
:101B20008F5F8C83DF91CF910895CF93DF93EC018A
:101B3000E2E5F6E0438162818C810E94670D8C8131
:101B40008F5F8C83DF91CF9108958F929F92AF9298
:101B5000BF92CF92DF92EF92FF920F931F93CF939A
:101B6000DF936CE771E02BE1822E26E0922EC0E03D
:101B7000EE24E394F12CDB018D91BD01E82FE29579
:101B8000EF70F0E091A18F70870101C0000F8A957E
:101B9000EAF7892F802B81A392A1D02FD0959D2386
:101BA00092A3B0EABA95F1F792E8C92E91E0D92E46
:101BB00050E040E020E0D6013D916D01A32EA294BB
:101BC0008FE0A822B12CD50190968C9190E03F70C7
:101BD00002C0959587953A95E2F780FD4FC08E2D0E
:101BE000042E01C0880F0A94EAF7282B4F5F5F4F3D
:101BF0004430510501F781A18D2381A382A1082BD7
:101C000002A3F40180812817D9F1208381E0C82B39
:101C1000FFEF8F1A9F0A21E06238720709F0ABCFFD
:101C2000CC2381F181E08093C8010E94FD0590934F
:101C3000C7018093C6018091C6019091C7010E949F
:101C4000EE05069718F180911B0680934706809158
:101C50001C068093480680911D068093490680915A
:101C60001E0680934A0680911F0680934B06809142
:101C7000200680934C061092C80108C080E0B5CFC2
:101C800080E0C5CF8091C8018111D5CF8091C70573
:101C9000882371F08091C5059091C6050E94EE05DC
:101CA000893E934028F082EE0E941F081092C705DB
:101CB0008C2FDF91CF911F910F91FF90EF90DF90CC
:101CC000CF90BF90AF909F908F900895CF9384E076
:101CD00090E00E94BF28C82F81E290E00E94BF28B8
:101CE000982F8C2FCF9108950F931F93CF93DF934D
:101CF00028E0629FE001112450E0440F551FC40FFB
:101D0000D51F30E3839FC00DD11D1124CE018696CF
:101D10000E94BF28082F10E0102F0027CE018796C1
:101D20000E94BF289801282BC901DF91CF911F91F4
:101D30000F910895462F873038F4763028F46430B8
:101D400018F4672F0C94740E90E080E00895CF9300
:101D5000DF930E949A0EEC0182389105A9F1D8F523
:101D60008133910509F496C048F58932910509F44B
:101D70008AC08A9709F495C0C11521E5D20708F0F9
:101D8000BCC0C11530E5D30708F014C1C83ED10569
:101D900008F09CC0C03ED10560F5C83AD10508F0F6
:101DA00087C0C53AD10508F0FDC0C130D10509F1A1
:101DB0002097F9F0C430D105E0F440C08533910597
:101DC00009F45AC0C997C1F680912206837089F040
:101DD000C0EED0E00EC0833E910599F170F4803ED4
:101DE000910501F1823E910539F68091220682FD2E
:101DF00021C0CE01DF91CF910895863E910561F11A
:101E0000873E910571F1843E910509F0B5CF80912F
:101E1000230681FFEECF80912206C7EED0E084FD3D
:101E20000DC0E7CF8091220680FD12C1909123065C
:101E300090FFDFCFC3EED0E084FFDBCFD0E0C0E087
:101E4000D8CF8091220682FD06C19091230690FD95
:101E5000BFCF84FFCECFF2CF8091220683FDDDCFAE
:101E6000C8CF8091220683FDF9C09091230691FF8F
:101E7000F0CFC4EED0E0BDCF8091220685FFB9CF70
:101E8000C9E2D0E0B6CF8091220685FFB2CFC5E38C
:101E9000D0E0AFCF8091220686FFABCFCAE2D0E080
:101EA000A8CF8091220686FFA4CFC1E3D0E0A1CFC6
:101EB000CF3BD10518F6C85AD0E0CC0FDD1FC25B6E
:101EC000DE4F0990D881C02DD46493CFC11540E274
:101ED000D40758F4C11581E0D80708F08ACFC03F75
:101EE000D10508F4ABCFD06584CFC11590E4D907F4
:101EF00008F4A4CFDF70D06A7CCFC11525E5D207E6
:101F000000F5C11534E5D30708F08AC0C11543E5D3
:101F1000D40708F071C0C11582E5D80708F467C07E
:101F2000CE018370992721E030E002C0220F331FD9
:101F30008A95E2F7C695C69580E2C89FE001112414
:101F400052C0C11599E5D907A8F4C11528E5D207F3
:101F500008F06BC0C11536E5D30708F06FCF8C2FA2
:101F60000E943009C82FD0E0DC2FCC27CC27DF71AE
:101F7000D0623FCFC1154AE5D40708F45BC0CE015B
:101F800090568115904208F059CF8D2F8F710E9485
:101F9000300990E0982F882788279F719C012C2B6F
:101FA000E901E6CFC55AD0E0C55BDE4FC881D0E07D
:101FB000D0641FCFCE01E4E096958795EA95E1F7CE
:101FC00083702C2F26952695237040E2249F900144
:101FD0001124382B8C2F8370C1E0D0E002C0CC0FCD
:101FE000DD1F8A95E2F7C22BD32BDC6802CFDC2FF2
:101FF000CC27C16FD06AFDCECE018370992721E036
:1020000030E002C0220F331F8A95E2F7C695C695CD
:1020100090E2C99FE0011124C22BD32BDA68E9CEEC
:10202000DC2FCC27C46FD06AE4CEDC2FCC27C06F66
:10203000D06ADFCE8C2F8F700E94300934E0D695A5
:10204000C7953A95E1F7CF709C2FEC01D069D1CEBE
:10205000C9E3D0E0CECEC2EED0E0CBCEC6EED0E02B
:10206000C8CEBF92CF92DF92EF92FF920F931F9351
:10207000CF93DF938C01C0908706D0908806E090C4
:102080008906F0908A068091160690911706A09115
:102090001806B0911906C82AD92AEA2AFB2ACFE1E4
:1020A000D0E0BC2ED701C6010C2E04C0B695A79572
:1020B000979587950A94D2F780FD0EC0219788F7EF
:1020C000B12C8B2DDF91CF911F910F91FF90EF904D
:1020D000DF90CF90BF900895B8018C2F0E94A70E7B
:1020E000019761F3EECFCF93DF93EC010E943110A3
:1020F000BE01DF91CF910C94A70E0E947310292F7F
:102100002F7092959F7092509E3078F4E92FF0E0F6
:10211000E459F64D0C944928803F19F020F4883E8C
:1021200020F481E00895843FE1F380E00895883E43
:10213000C0F3813FD1F7F5CF822F8695869586959E
:1021400008956F927F928F929F92AF92BF92CF929B
:10215000DF92EF92FF920F931F93CF93DF938FEC59
:10216000C82E83E0D82E0EE510E0E801E097360196
:102170001CC0F50185909490692DC7010E94D32859
:10218000682DC70101960E94D32882E0A80EB11CD9
:1021900082E0E80EF11CCE15DF0559F788E0680EE5
:1021A000711C28960C171D0731F07E0188E0E81A93
:1021B000F1085301DECF005D1F4F80E3C80ED11C34
:1021C0000E3A81E0180789F6DF91CF911F910F91A8
:1021D000FF90EF90DF90CF90BF90AF909F908F9047
:1021E0007F906F900895CF93DF93C6E7D1E060E0D2
:1021F000CE010E94D3282196C11584E0D807B9F7F3
:10220000DF91CF910895CF93C82F6FEF811161E2D5
:1022100082E290E00E94D3286FEFC11166E083E272
:1022200090E00E94D3286FEFC11162E084E290E059
:10223000CF910C94D3288F929F92AF92BF92CF925E
:10224000DF92EF92FF920F931F93CF93DF93FC01E6
:10225000B280948081E08483C6E2D2E00CEC11E08D
:102260008BE4A82E88248394EE24EA94F12C2BE4AA
:10227000C22ED12C91101DC01B821A8298014A8156
:10228000698188810E94970825960D5F1F4F82E023
:10229000CC3BD80779F7DF91CF911F910F91FF9039
:1022A000EF90DF90CF90BF90AF909F908F900C9465
:1022B0008F0B2B81222309F121502B833C818A2D06
:1022C000821B311101C0822F90915506899FC00158
:1022D0001124B6010E9421286A83211104C03323EE
:1022E00011F01C82AB8222E02B1540F28091530644
:1022F0008883809154068983C1CF0E94A2288230AE
:1023000091400CF0BBCF82E08B15C0F40E94A22854
:10231000B7010E943528888322E02B1590F40E9493
:10232000A228209154062695622F70E00E9435283D
:10233000280F29831A82AB828C82A0CF809153060A
:10234000EACF20915406F5CF6CEE7EEF90E080E06E
:102350000E94F12860E082E090E00E94D32860E0D3
:1023600083E090E00E94D328109216061092170680
:10237000109218061092190660E084E090E00E9426
:10238000D32860E081E290E00E94D32860E085E0FD
:1023900090E00E94D32860E086E090E00E94D3287D
:1023A0006FEF87E090E00E94D32840E050E0BA0150
:1023B00088E090E00E94E52860E08DE090E00E94D7
:1023C000D32840E050E0BA0188E190E00E94E5287F
:1023D00060E087E190E00E94D32840E050E0BA013D
:1023E0008CE190E00E94E52860E080E290E00E94AD
:1023F000D32840E050E0BA018FE090E00E94E52849
:1024000040E050E0BA0183E190E00C94E528CF92DF
:10241000DF92EF92FF926B017C010E948108B7016D
:10242000A60188E090E0FF90EF90DF90CF900C94B1
:10243000E52880915606833018F48F5F8093560606
:102440006091520670915306809154069091550602
:102450000C94071280915606882319F081508093BE
:1024600056066091520670915306809154069091E1
:1024700055060C9407125F926F927F928F929F92F3
:10248000AF92BF92CF92DF92EF92FF920F931F9382
:10249000CF93DF9300D00F92CDB7DEB7182F762EF3
:1024A000042F622E9091520690FF29C0E92FE695E5
:1024B000AE2FB0E0A05EBE4F8C91809345069E7F0C
:1024C000923081F59E012F5F3F4F812F0E94970828
:1024D0004B8169818A810E94170D10935306709277
:1024E000540600935506662051F060915206709193
:1024F000530680915406909155060E9407120F9042
:102500000F900F90DF91CF911F910F91FF90EF905F
:10251000DF90CF90BF90AF909F908F907F906F9003
:102520005F900895823019F400915506D6CF863019
:1025300019F410915306D1CF8930D9F3893169F656
:10254000E9518E2F8170582EE695F0E0E653FD4F4D
:10255000A590B490BB248CECE82E81E0F82ED12C11
:10256000C12C9EE1892E912CC601B4010E94212824
:10257000812F511013C0860F9701402F672D0E94A5
:102580009708CA0CDB1C83E0E80EF11C86E2E81613
:1025900082E0F80649F70E948F0B9FCF861BECCF95
:1025A000E2E5F6E0438128E0421B08F440E021E048
:1025B000628181810C943B12E2E5F6E0438128E0E0
:1025C000420F08F44FEF21E0628181810C943B12AD
:1025D000E2E5F6E0628128E0621B08F460E021E0B9
:1025E000438181810C943B12E2E5F6E0628128E0B0
:1025F000620F08F46FEF21E0438181810C943B125C
:10260000E2E5F6E0818121E04381628188500C940B
:102610003B12E2E5F6E0818121E043816281885F3F
:102620000C943B12E2E5F6E083E0808311828FEFA9
:10263000828388EC8383148260817181828193819B
:102640000C9407121092140680911F01E8EAF1E041
:10265000882359F08091220687FF07C08EE1DF01B1
:102660001D928A95E9F70C94670786E0F8CF1F93CF
:10267000CF93DF93CDB7DEB7AA970FB6F894DEBF3E
:102680000FBECDBF8EE796E02091F100DC012D93C7
:10269000CD01B6E086389B07B9F780917F0683307D
:1026A00009F471C0B8F4813009F448C0823009F4EB
:1026B000B2C08091E80083FF3AC180917E0690917C
:1026C0007F069A3008F033C1E92FF0E0E658F64D66
:1026D0000C9449288A3009F48DC08B3009F470C0FD
:1026E000893039F780917E06813219F78091820610
:1026F00090918306009711F00297D9F68091E80037
:10270000877F8093E8008091E80082FF37C0909136
:10271000F3008091F200029729F48091F1008B7F01
:10272000813021F48091F10080935A068091E80075
:102730008B778093E8000E94A903BBCF80917E062F
:10274000813A09F0B6CF8091E800877F8093E80056
:102750008091820690918306892B61F460E28BE57B
:1027600096E070E00E945B048091E8008B77809394
:10277000E8009FCF60E090E080E0F3CF8091860694
:102780008111C1CF96CF80917E06813A09F091CF19
:102790008091820690918306892B09F08ACF8091DF
:1027A000E800877F8093E8008091E80080FFFCCFFD
:1027B00080911F018093F1008091E8008E77B9CF5E
:1027C00080917E06813209F074CF809182069091CB
:1027D0008306892B09F06DCF8091E800877F809375
:1027E000E8000E94A9038091800680931F010E9447
:1027F00022135FCF80917E06813209F05ACF8091FB
:10280000E800877F8093E8000E94A90380918106F9
:10281000809359064ECF80917E06813A09F049CFC8
:102820008091E800877F8093E8008091E80080FF36
:10283000FCCF80915906BECF803899F0823809F0DC
:1028400076C0809182068F70873008F070C08093C8
:10285000E9008091EB0085FB882780F91092E90060
:1028600006C080917B0690917C06911182609091C8
:10287000E800977F9093E8008093F1001092F100B8
:102880008091E8008E77C0C1882309F4ADC1823001
:1028900009F04DC0809180068111B1C180918206FE
:1028A0008F702FEF280F263008F041C08093E90089
:1028B0002091EB0020FFA3C1933031F48091EB0015
:1028C00080628093EB009BC19091EB0090619093AC
:1028D000EB0021E030E001C0220F8A95EAF7209357
:1028E000EA001092EA008091EB008860EACF811143
:1028F0001EC0109180061F778091E3008078812BA5
:102900008093E3008091E800877F8093E8000E9435
:10291000A9038091E80080FFFCCF8091E3008068EC
:102920008093E30082E0111183E08093860680911A
:10293000E80083FF0AC08091E800877F8093E80069
:102940008091EB0080628093EB00AA960FB6F8941A
:10295000DEBF0FBECDBFDF91CF911F91089580588C
:10296000823028F720918006309181062C3DE3E0EB
:102970003E07A1F583E08A838AE289834FB7F89402
:10298000DE01139620E03EE051E2E32FF0E05093A9
:102990005700E49120FF03C0E295EF703F5FEF70B6
:1029A0008E2F90E0EA30C0F0C7968D939D932F5FF5
:1029B000243159F74FBF8091E800877F8093E8006A
:1029C0006AE270E0CE0101960E945B048091E8000B
:1029D0008B778093E800ABCFC096E7CF80918206DB
:1029E00090918306432F55274330510509F44AC07F
:1029F00078F54130510509F485C08BE590E0E4EEAF
:102A0000F4E04230510509F092CF2091E800277F91
:102A10002093E80020918406309185068217930761
:102A200008F49C0140E02115310509F070C0411106
:102A30006EC08091E80082FDC9CF80918606882310
:102A400029F2853019F28091E80083FFF2CFBECFE2
:102A50004132510509F447C04232510509F067CFB0
:102A60008330910508F063CFFC01EE0FFF1FE7569E
:102A7000FE4F0190F081E02D8A569E4FDC018C9133
:102A800090E01DC0332721303105E9F021153105D3
:102A900079F022303105F9F02330310509F047CFC4
:102AA000E1E5F5E0E4918E2F90E0E1E5F5E007C087
:102AB000E7E7F5E0E4918E2F90E0E7E7F5E0009797
:102AC00009F435CFA2CFE3E6F5E0E4918E2F90E054
:102AD000E3E6F5E0F4CFE7E5F5E0E4918E2F90E052
:102AE000E7E5F5E0ECCF8330910508F020CF880FC3
:102AF000991FFC01E156FE4F0190F081E02D89E025
:102B000090E083CF82E190E0EFE3F5E07ECF80912B
:102B10008606882309F45ACF853009F457CF80916F
:102B2000E80083FD53CF8091E80082FD82CF809141
:102B3000E80080FF78CF9091F3008091F20021159A
:102B4000310519F08830910550F041E0089709F0FF
:102B500040E08091E8008E778093E80064CF449154
:102B60004093F1003196215031090196E8CF803829
:102B700009F0DDCE8091E800877F8093E8008091A6
:102B80007D068093F1007CCE8111D1CE109180061C
:102B9000123008F0CCCE8091E800877F8093E80067
:102BA00010937D060E94A903112311F084E005C053
:102BB0008091E30087FDFACF81E08093860642E0B2
:102BC00061EC81E00E94C80342E261EC84E00E9473
:102BD000C80342E261EC82E00E94C80342E260EC7A
:102BE00083E00E94C803A3CE80918006813009F063
:102BF0009ECE81E0933009F080E080937C061092B5
:102C0000E9008091E800877F8093E8000E94A90393
:102C10008ECE60915206669570E04BE050E084E005
:102C200091E00E94B228892B19F481E08093460636
:102C30000E94FD05909328068093270608959091A1
:102C4000520690FF36C09170811129C09260909316
:102C50005206662351F0609152067091530680919E
:102C60005406909155060E9407126091520666958F
:102C700070E04BE050E084E091E00E94B228892BA4
:102C8000A9F01092460681E080932A0620E0409148
:102C9000550660915406809153060C943B128B327A
:102CA00010F09465D4CF880F982BD1CF0E940916CD
:102CB000EACF0895809152068695815009F48AE200
:102CC00061E00C941F168091520686958F5F8B32BF
:102CD00008F081E061E00C941F169091520690FF7D
:102CE00007C09695981720F0961710F40C94631669
:102CF00061E00C941F164F925F926F927F928F92B9
:102D00009F92AF92BF92CF92DF92EF92FF920F937A
:102D10001F93CF93DF9300D000D00F92CDB7DEB7D3
:102D20007C01FC0183819481892B31F08081918128
:102D300089238F3F09F02AC70F900F900F900F90B3
:102D40000F90DF91CF911F910F91FF90EF90DF9047
:102D5000CF90BF90AF909F908F907F906F905F903B
:102D60004F9008950E943110182F682F89819A8101
:102D70000E94F00669817A81812F0E949A0E8C014F
:102D80008091C405F70192818111E6C091110CC0B8
:102D90000430FDE51F0709F4ADC008F056C003304C
:102DA0003DE5130709F477C0F7018281882309F410
:102DB000E2C6980122513F452031310508F0ADC6E9
:102DC0008FEF93E00E94BF28025156E7852E992489
:102DD000939481116DC0011147C11C821B8266242E
:102DE00063944AE0542E84010F5F1F4FC4010E9478
:102DF000BF2889831A82882309F45AC09FEF980F4D
:102E0000933008F040C18A83698232E0830E911CBE
:102E1000C8010E94BF288B83882309F449C08E0112
:102E20000F5F1F4FF80120812223E9F2213009F0C2
:102E300063C191818281913009F027C10E5F1F4FDC
:102E40000E94180B0F5F1F4FEDCF06308DE518075E
:102E500009F45CC007309DE5190709F0A5CFC090C3
:102E60001101D09012018090870690908806A09062
:102E70008906B0908A060E9422130E9404080CEB77
:102E800015E0C016D10609F456C0C8010E947B1691
:102E900006501109F6CF0E9422130E94040882EC0A
:102EA00092E09093C3058093C20581E08093C405AE
:102EB00080911106877009F43FCFF7018281882342
:102EC00009F43ACF82E00F900F900F900F900F907F
:102ED000DF91CF911F910F91FF90EF90DF90CF90F6
:102EE000BF90AF909F908F907F906F905F904F902A
:102EF0000C94CB070E9422130E9404088CEB95E0EF
:102F00009093C3058093C20582E0D0CFC090130197
:102F1000D09014018090870690908806A090890632
:102F2000B0908A060E9422130E94040802EC12E06C
:102F3000C016D10659F40E942213809287069092FF
:102F40008806A0928906B0928A06B2CFC8010E9474
:102F50007B160A5F1F4FECCF980123503D4523306D
:102F60003105B8F521E005301D4509F420E02917A9
:102F700009F49ECF813029F08230B9F01092C40557
:102F800097CF8091C2059091C305F2E0823C9F07E4
:102F900029F0FC0136972281211105C0909314017C
:102FA00080931301EBCFCF01F0CF8091C2059091B8
:102FB000C30525E08C3B920729F0FC01369622815F
:102FC000211105C09093120180931101D7CFCF0139
:102FD000F0CF813021F1823009F0E6CE209113014B
:102FE00030911401A091C205B091C305911105C0A3
:102FF00095E0AC3BB90709F4D7CECD01069628176A
:10300000390709F4D1CE86E0F70101900D928A9537
:10301000E1F78091C2059091C305069720C02091E9
:10302000110130911201A091C205B091C305911117
:1030300005C082E0A23CB80709F4B6CECD010697E0
:103040002817390709F4B0CE86E0F70101900D92F8
:103050008A95E1F78091C2059091C30506969093F9
:10306000C3058093C205A0CE8114F4E09F0609F445
:103070001FCFC4010E94BF28811101C001502FEF52
:10308000821A920AA8CE4801CACE923029F40E5F65
:103090001F4F0E94630AD6CE933029F40E5F1F4F54
:1030A0000E941F08CFCE943019F00F5F1F4FCACE79
:1030B0000E5F1F4F30E020E0B8016F5F7F4FF801D7
:1030C00041818053990B8A30910558F02150310984
:1030D00008F4B8CE8FE99FE00197F1F700C0000037
:1030E000F5CF529EF001539EF00D11249C012E0F3E
:1030F0003F1F842F8B01E0CFE22FF0E0E15BFB4F1D
:103100007490822F86958695869590E0FC01E15C0F
:10311000FB4FA4902770B12C022E02C0B594A79447
:103120000A94E2F7E1E0AE22BB24FC01E15DFB4F33
:10313000C490D12C02C0D594C7942A95E2F7F1E04F
:10314000CF22DD24A114B10419F081EE0E94630A9C
:10315000C114D10419F086EE0E94630A872D0E94E3
:10316000180BCD2819F086EE0E941F08AB2809F431
:1031700069CE81EE95CF81E00E94E30703C081E034
:103180000E94A8070E948C0793CE82E0F5CF882387
:1031900009F477C08091C705811106C081E0809352
:1031A000C70582EE0E94630A0E94FD059093C60542
:1031B0008093C5058BE20E94630AF70192819923EF
:1031C00009F4F5C41092C8050230FCE51F0708F4A5
:1031D0005EC106312CE5120738F098012A5F3C45A4
:1031E0002930310508F053C10E94660E90932306E2
:1031F0008093220600313CE5130709F417C108F05B
:10320000A5C008309CE5190709F406C108F074C090
:103210000430FCE51F0709F4F7C008F05AC002307B
:103220003CE5130709F4E6C003301C4509F4E8C087
:10323000609122061091230684E090E00E94D3283A
:10324000612F81E290E00E94D3280E94221330CEA9
:103250008823A1F08091C705811106C081E0809389
:10326000C70582EE0E94630A0E94FD059093C60581
:103270008093C50581EE0E94630A9CCF81EE0E9477
:103280001F088BE20E941F0898CF053F3CE51307FB
:10329000C9F0A0F027E245EE66EE063F9CE519076F
:1032A00009F08BCFC7010E942B0B02CE27E245EE1F
:1032B00065EEF8CF26E241EE60EEF4CF27E245EE70
:1032C00064EEF0CF26E241EE62EEECCF28E241E080
:1032D000EFCF80912206806106309CE5190709F442
:1032E0008CC080912206886007301C4508F485C098
:1032F00080912206806281C0809122068D7F0C30F1
:10330000FCE51F0709F479C070F4809122068C60F7
:103310000A303CE5130709F470C008F481C08091BD
:1033200022068E7F6AC080912206877F0E309CE540
:10333000190709F462C0809122068B7F0F301C456B
:1033400008F45BC0809122068F7E57C00B3FFCE5DE
:103350001F0709F45DC030F503313CE5130709F49C
:103360006DC078F401319CE5190709F463C002319E
:103370001C4509F05DCF0E942213809122068F77B1
:103380003CC00531FCE51F0709F460C008F474C0B7
:103390008091230681600A3F1C4509F049CF809344
:1033A000230646CF0F3F8CE5180709F44BC088F47D
:1033B000809123068D7F0D3FECE51E0781F3809100
:1033C00023068E7F0E3F1C4550F3809123068360B9
:1033D000E6CF01302DE5120709F457C008F442C0CA
:1033E00060E002301D4509F023CF8EE090E00E949E
:1033F000D3281ECF8091220681608093220618CFA9
:10340000809122068260F9CF809122068460F5CFF8
:10341000809123068260C3CF809122068064EDCF25
:103420000E942213809122068068E7CF80912206B5
:103430008F7DE3CF809122068F7BDFCF80912206A4
:10344000837FDBCF809123068C7FA9CF80912206DA
:1034500082FB992790F921E0922790FB82F990FB5B
:1034600083F9CBCF80912306982F909591708E7F12
:10347000892B90FB81F993CF0E9422139091220611
:10348000892F97FB87F98058B8CF61E0AECF809144
:1034900014060631ECE51E0709F095C38A7A91E01F
:1034A00009F490E09093C905811106C089E20E9459
:1034B00095060E942506FCCC85E3F9CF85E380C301
:1034C0008091520680FF1BC08E7F809352066091D0
:1034D00052067091530680915406909155060E94B1
:1034E000071210924606FFEF20E732E0F15020402D
:1034F0003040E1F700C000000E948F0BD9CC816002
:103500008093520661E086950E941F16D1CC4AE551
:1035100056E163E676E10E947C08CACC43E656E1B8
:103520006AE576E1F8CF40E053E169E073E1F3CF7B
:1035300049E053E160E073E1EECF48EE52E164EF21
:1035400072E1E9CF44EF52E168EE72E1E4CF40ED81
:1035500052E16CED72E1DFCF4CED52E160ED72E1D2
:10356000DACF4AE252E169E172E1D5CF49E152E1B5
:103570006AE272E1D0CF61E081E0C6CF65E082E02F
:103580000E946D1695CC68E086E0FACF6EE089E087
:10359000F7CF64E18FE0F4CF67E185E1F1CF61E03F
:1035A00088E1B2CF62E289E1EBCF61E083E2ACCFA8
:1035B00001158CE5180709F447C00E3D1C4509F4B8
:1035C00050C0F70100811181992309F44DC0C80151
:1035D0000E943110D82E682FC8010E94F006B80151
:1035E0008D2D0E94A70E8C01882EF701A580A29434
:1035F0003FE0A322D280D1101092130680911106D1
:10360000877099F0DD2089F0812F807F803421F050
:1036100080E2800F883048F082E00E94CB078091E2
:1036200011068770CC24C3948111C12CB12EB294A1
:103630002FE0B222FBE0FB1508F450C0EB2DF0E0C8
:10364000EC57F64D0C9449280E942213FFEF24E317
:103650003CE0F15020403040E1F700C000000E9403
:103660003F0A0E94A41124CCC8010E94C906D82E8A
:10367000B6CF212F2F70A22E107F19F0A29490EFB9
:10368000A922DD20C9F0AA2069F080E2800F8830ED
:1036900010F081100BC080911406A82AA092140685
:1036A0000E942506802F0E94630A18C0809113068D
:1036B000A82AA0921306F4CF802F0E941F08AA20E8
:1036C00069F0A094005E083010F081103DC0809138
:1036D0001406A822A09214060E942506EB2DE8509D
:1036E000FF0B349720F40E9413080E947309CC202A
:1036F00009F422CB8091110680FD1ECBF7011282C6
:103700008595859585950E94E307C7010E947B16E4
:10371000809111068595859585950F900F900F9056
:103720000F900F90DF91CF911F910F91FF90EF902D
:10373000DF90CF90BF90AF909F908F907F906F90D1
:103740005F904F900C94A80780911306A822A09236
:103750001306C2CF312F3F70932E107F103219F015
:10376000929480EF9822882071F081E0881661F1B0
:10377000DD20B9F1AA2071F1F701858180FF92CF98
:103780008F70858327C0DD2091F090911506892DDB
:10379000892BA11003C00E943107A0CFE1E0AE1237
:1037A000FACF981709F49ACF8093150697CFA110F6
:1037B00006C00E941F06892D0E9426078FCFF1E0C8
:1037C000AF1609F48BCFF5CFDD2031F025E02A15B7
:1037D00008F484CF892DDFCF34E03A1508F47ECF8A
:1037E000EACFAA2041F3F9E38F1290C12FEF37EE11
:1037F00083E0215030408040E1F700C0000086C1E6
:10380000812F86958695837061F0813009F066CFAF
:10381000C8019370D11002C090E080E00E943B0785
:103820005DCFC8019370D11002C090E080E00E948B
:10383000510754CF802FDD2029F00E9486050E9479
:1038400009064CCF0E94C504FACF812F837009F07E
:1038500066C0D11043CF802F829586958770880FE0
:10386000880F602F6F70462E512C712C612C082E02
:1038700004C0440C551C661C771C0A94D2F740E027
:1038800050E0BA0104FF0FC04FE050E060E070E08C
:1038900004C0440F551F661F771F8A95D2F74095C5
:1038A000509560957095812F8695869583708230AE
:1038B00019F1D8F4009116061091170620911806F8
:1038C00030911906813069F04429552966297729F4
:1038D000CB01BA0160237123822393230E9409083C
:1038E000FDCE402A512A622A732ACB01BA016429EB
:1038F000752986299729F2CF4429552966297729E0
:10390000009116061091170620911806309119069D
:10391000CB01BA016027712782279327DFCF8695D5
:10392000DD2011F0812F8170882309F4D7CE802FFC
:10393000829586958770880F880F602F6F70462E4E
:10394000512C712C612C082E04C0440C551C661C93
:10395000771C0A94D2F740E050E0BA0104FF0FC090
:103960004FE050E060E070E004C0440F551F661F58
:10397000771F8A95D2F74095509560957095812F65
:10398000869586958370823019F1D8F40091870668
:10399000109188062091890630918A06813069F05D
:1039A0004429552966297729CB01BA01602371235F
:1039B000822393230E94820791CE402A512A622AB1
:1039C000732ACB01BA016429752986299729F2CF78
:1039D0004429552966297729009187061091880680
:1039E0002091890630918A06CB01BA0160277127A0
:1039F00082279327DFCF1F70DD2029F0812F0E94BF
:103A0000E307802FC8CE802F0E942607812F0E94B7
:103A1000A80764CE802F92EF891609F450C098153C
:103A200078F0E0EF8E1619F1F1EF8F1609F43FC030
:103A3000DD2009F466C0A11035CE812F8F713CC006
:103A400023EF821609F440C034EF8312F1CFDD205A
:103A500009F44CC01F71812F0E94E307E8E01E9F0C
:103A6000C0011124836080931106812F25C0DD20C1
:103A7000C9F084E08A1508F431CE1F7161E070E06E
:103A800080E090E004C0660F771F881F991F1A9589
:103A9000D2F700918706109188062091890630910F
:103AA0008A06A4CF95E09A1508F418CEE6CF812FA8
:103AB0008F71DD2009F4ABCF0E94E3070FCE812F79
:103AC0008F71DD20C9F3A3CFDD2069F01F7161E0A4
:103AD00070E080E090E004C0660F771F881F991F98
:103AE0001A95D2F767CF0E940408F8CD81E00E94B2
:103AF000CB07F1E0FA1508F0F1CD82E00E94CB0788
:103B0000EDCDAA2039F0893309F470CE802F0E94C0
:103B10001F08E4CD812F8F717ACF0031FFE51F0799
:103B200009F429CB01312FE5120709F42ECB003817
:103B30002FE5120709F42BCB01383FE5130709F4F1
:103B400087CB033F8CE5180709F4B4CB08F09DCB75
:103B5000083DECE51E0709F4A9CB093DFCE51F076C
:103B600009F4B4CB073D2CE5120709F026CB26E279
:103B700041EE61EE97CB00313FE5130709F4FFCA30
:103B800001319FE5190799F682E0FACA85E0DE0166
:103B9000119601900D928A95E1F7F70122818981B2
:103BA0009A812111DFC80E94C906182FE3C8063187
:103BB0001C4509F006CD8091C90581117FCC89E2B1
:103BC0000E946A0676CC8272F801E25CFC45E43120
:103BD000F10508F0EDCCE057F64D0C9449281F9301
:103BE000CF93DF938091CF05807FA9F48091CC059E
:103BF000882389F080910106D091D0056091CA0593
:103C00007091CB05A091CD05B091CE05C62FC723ED
:103C100016E0D81304C0DF91CF911F91089590E072
:103C2000109711F0CF3F19F401968770F2CF189FCB
:103C30009001199F300D1124F901EF52FA4F418183
:103C40004713F2CF40814613EFCF42814111ECCFB1
:103C5000438154814A1B5B0B483C510528F78091F6
:103C6000CF058F7080618093CF05F901EA52FA4F3A
:103C700080818F70806180838AEC95E00E947B1642
:103C8000DF91CF911F910C941C07AF92BF92CF92FE
:103C9000DF92EF92FF920F931F93CF93DF93CDB7F5
:103CA000DEB761970FB6F894DEBF0FBECDBF8C01B3
:103CB00085E0F801DE011D9601900D928A95E1F7ED
:103CC000F80180819181E2802AECA22E25E0B22EBB
:103CD0006091CD057091CE056115710509F43EC165
:103CE0003091CA054091CB05232F24232F3F09F49F
:103CF00035C1C380D480F090CC05F601E61BF70BEC
:103D0000FF2009F4FBC02091CF05522F507FE83CE3
:103D1000F10508F0BBC0511178C0FE2C491321C039
:103D200038131FC0E1101DC02F7020612093CF05F4
:103D3000C5010E947B168091CF05F80185838F2DE8
:103D400061960FB6F894DEBF0FBECDBFDF91CF9165
:103D50001F910F91FF90EF90DF90CF90BF90AF90A9
:103D60000895CD2829F0282F29232F3F09F014C1C9
:103D700020E0F22FF170DF2E20FF3DC020910106E0
:103D80004091D00556E0241315C08D879E878D8500
:103D90009E850E947310292F22952F702230F8F0F3
:103DA000243020F59F70F9F0F8019581907FD9F4C7
:103DB000D12C1FC030E0529FF001539FF00D112411
:103DC000EF52FA4F6181961306C06081861303C0DB
:103DD0006281E61210C02F5F3F4F2770D4CF9F70D3
:103DE00011F0882329F3805E883010F3C8010E9407
:103DF0007B16FD2CA4CFEE2009F4A1CF8091CF0536
:103E000081608093CF05F12C9ACF491312C03813EB
:103E100010C0E1100EC0F8012583C8010E947B1676
:103E200086E0F801AAECB5E001900D928A95E1F7E1
:103E300086CF8D879E878D859E850E947D108823E5
:103E400009F1EE20F9F08091CF05803270F02091D9
:103E5000CA053091CB0538872F831986DB86CA8641
:103E60008C87CE0107960E947B1686E0F801AAECAB
:103E7000B5E001900D928A95E1F70E94EF1DFF24B5
:103E8000F3945DCFC8010E947B16F9CF51110AC08F
:103E90008AEC95E00E947B1686E0F50111928A95E6
:103EA000E9F7B1CF49130FC038130DC0E1100BC0B3
:103EB000F8012583C8010E947B1686E0F501119266
:103EC0008A95E9F73CCF8D879E878D859E850E94D8
:103ED0007D108823B9F2EE20A9F28091CF058032BF
:103EE00020F22091CA053091CB053A8329831B82A9
:103EF000DD82CC828E83CE010196B5CFE83CF10500
:103F0000E0F6FE2CEE2009F4BDCF491316C038139D
:103F100014C08091CF0580FD83CF982F907F09F446
:103F20007FCFF8018583903F09F477CF982F907F5A
:103F3000905F8F70892B858370CF8D879E878D854D
:103F40009E850E947D10811190CF8091CF05816068
:103F50008093CF05C8010E947B16F1CEEE2009F4B4
:103F600091CF8D879E878D859E850E947D10F82E2E
:103F7000882309F487CF86E0F801AAECB5E0019028
:103F80000D928A95E1F78091CA059091CB050E9428
:103F900073100E94EF1DD3CE21E02E25EACE1F9391
:103FA000CF93DF93CDB7DEB767970FB6F894DEBF38
:103FB0000FBECDBF4B8B5C8B6D8B7E8B8F8B1A8A2C
:103FC000198A85E0FE017396DE011D9601900D921F
:103FD0008A95E1F786E0FE013D96DE011796019095
:103FE0000D928A95E1F7CE0107960E94451E88231F
:103FF00089F016E0809101069091D005891349C09F
:1040000067960FB6F894DEBF0FBECDBFDF91CF919C
:104010001F91089586E0FE013796DE01119601900A
:104020000D928A95E1F78A859B85892B11F38F8103
:10403000988589238F3FE9F22091D00530E0C901AE
:10404000019687709927409101064817190671F467
:104050000E9422131092D0051092010686E0EAEC2D
:10406000F5E0DF011D928A95E9F7C3CF96E0929FB4
:10407000D001939FB00D1124AF52BA4FFE0131967B
:1040800001900D929A95E1F78093D0050E941C074C
:10409000B0CF819FC00111248F529A4F0E94451EBC
:1040A000882309F4ADCF8091010690E001968770D6
:1040B0009927809301069ECF1F920F920FB60F9201
:1040C00011242F933F934F935F936F937F938F931D
:1040D0009F93AF93BF93CF93DF93EF93FF93D091D1
:1040E000E900DF708091EC00C82FC17080FDC0E84E
:1040F0001092E9008091F000877F8093F00078941F
:104100000E9437131092E9008091F000886080933C
:10411000F000CD2BCF70C093E900FF91EF91DF91BC
:10412000CF91BF91AF919F918F917F916F915F914F
:104130004F913F912F910F900FBE0F901F901895A8
:104140001F920F920FB60F9211242F933F934F930C
:104150005F936F937F938F939F93AF93BF93EF93EF
:10416000FF938091E10082FF09C08091E20082FF0D
:1041700005C08091E1008B7F8093E1008091DA009F
:1041800080FF24C08091D80080FF20C08091DA0099
:104190008E7F8093DA008091D90080FFB2C080E1E9
:1041A00089BD82E189BD09B400FEFDCF81E0809325
:1041B000860680915106811109C00E9407030E9462
:1041C000FA038091E20084608093E2008091E10034
:1041D00080FF17C08091E20080FF13C08091E20051
:1041E0008E7F8093E2008091E20080618093E20004
:1041F0008091D80080628093D80019BC85E08093BC
:1042000086068091E10084FF40C08091E20084FF37
:104210003CC080E189BD82E189BD89B5982F91704C
:1042200080FFFBCF8091D8008F7D8093D800809154
:10423000E1008F7E8093E1008091E2008F7E809389
:10424000E2008091E20081608093E20080917D062F
:10425000882309F45CC084E0809386060E942213C0
:104260000E9413080E947309109258068091570605
:10427000882349F08091520681608093520660E065
:1042800086950E941F160E9409168091E10083FF07
:1042900027C08091E20083FF23C08091E100877FE7
:1042A0008093E10082E08093860610927D068091E3
:1042B000E1008E7F8093E1008091E2008E7F809309
:1042C000E2008091E20080618093E20042E060E0E1
:1042D00080E00E94C8038091F00088608093F00025
:1042E000FF91EF91BF91AF919F918F917F916F91CE
:1042F0005F914F913F912F910F900FBE0F901F90A4
:10430000189519BC10928606109251065FCF8091C5
:10431000E30087FD93E090938606A0CFCDB7DEB78C
:10432000EE970FB6F894DEBF0FBECDBF84B7877F80
:1043300084BF0FB6F894A89580916000886180933F
:104340006000109260000FBE80E890E00FB6F89415
:1043500080936100909361000FBE85B7806885BF30
:1043600085B7806885BF0E9407030E94FA03809189
:10437000E20084608093E20078948091860688232E
:10438000A1F01091E9001F709091EC00892F8170CD
:1043900090FD80E8182B1092E9008091E80083FDE1
:1043A0000E9437131F701093E90082E084BD93E0F0
:1043B00095BD9AEF97BD80936E00ACE7B1E022E81F
:1043C00031E041E050E08D91E82FE295EF70F0E0B0
:1043D00011A18F70BA0101C0660F8A95EAF7962F76
:1043E0009095912391A382A1862B82A32A173B0744
:1043F00051F7A2E8B1E026E831E041E050E08D91CC
:10440000E82FE295EF70F0E011A18F70BA0101C0C2
:10441000660F8A95EAF7962F9095912391A382A132
:10442000862B82A32A173B0751F7EBE1F6E081E2E6
:1044300096E0A7E4B6E011921D928E179F07D9F778
:104440000E94A50D8FE39CE90197F1F700C00000E1
:104450000E94A50D8091470680FF0BC080E00E945E
:1044600003116FEF7FEF90E080E00E94F1280E943F
:104470003F0A90E080E00E94CD288C3E9E4F11F0D4
:104480000E94A41182E290E00E94BF28813209F0CC
:1044900053C583E290E00E94BF28863009F04CC5E6
:1044A00084E290E00E94BF28823009F045C590E088
:1044B00080E00E94CD288C3E9E4F11F00E94A411F6
:1044C00082E090E00E94BF2880933E060E94660E24
:1044D000909323068093220683E090E00E94BF28F9
:1044E000682F70E090E080E00E940908809121062A
:1044F000811136C090E080E00E94CD288C3E9E4F16
:1045000021F00E94A4110E94121388E090E00E9402
:10451000C728609352067093530680935406909375
:1045200055066E7F71F40E94121388E090E00E949D
:10453000C728609352067093530680935406909355
:1045400055060E948108109246068091520680FF0F
:1045500004C060E086950E941F1681E080932106CA
:1045600052985A9A5198599A89B182FB882780F9B2
:1045700049992EC290E0892B80932F0660912206E4
:104580006068609322061091230684E090E00E9408
:10459000D328612F81E290E00E94D32885E191E049
:1045A000909325068093240692EDC92E94E0D92E8F
:1045B00087E496E026E0B22EB80E8091860685301C
:1045C00009F408C20E94A50DEFE3F6E0A7E4B6E007
:1045D00010E000E0302F8D919191981709F457C2A7
:1045E000292F282790E099249394422F492109F4F8
:1045F00049C29DAB3EAB892191E009F490E09FABAD
:104600000E94FD058160782F99AF88AF4DA95EA902
:104610006FA989AD0E94CF1FF801E15CF94F80813D
:104620009826908280914606882309F441C08091A3
:104630004506E0915206E695E81BE0932906823094
:1046400009F03CC2F0E0E052FB4FE4910E2F10E085
:1046500081E8882E8DE0982E80912A06882389F0A3
:1046600010922A060E94FD05980120953095820F30
:10467000931F909328068093270610922C06109281
:104680002B0680912706909128060E94EE05801740
:10469000910770F0E0912706F09128060E0F1F1F7A
:1046A000109328060093270687E296E0F401099507
:1046B000E0912F06EE0FEE0FE0932F0689B182FBFB
:1046C000EE24E0F8499965C280E08E29E82BE0935A
:1046D0002F06EF70F0E0EA57FE4F808190912E0692
:1046E000890F80932E0684302CF180912D068F5FE8
:1046F00080932D0612E018AB19AA81E08AAB0E94C4
:10470000FD058160782F9CAB8BAB48A959A96AA99C
:104710008CA90E94CF1F1BA71CA61DA60E94FD05E9
:104720008160782F9FA78EA74BA55CA56DA58FA54F
:104730000E94CF1F80912E068D3F24F580912D067B
:10474000815080932D061EA21FA281E088A70E949F
:10475000FD058160782F9AA789A74EA15FA168A562
:104760008AA50E94CF1F19A21AA21BA20E94FD05B2
:104770008160782F9DA38CA349A15AA16BA18DA123
:104780000E94CF1F80912E06837887FF03C081503F
:104790008C6F8F5F80932E0686E0E7E3F6E0DE0104
:1047A000119601900D928A95E1F7809139069091CA
:1047B0003A06892B09F468C0809135069091360637
:1047C0000E94EE059C0190913406992309F4CFC311
:1047D0002333310508F458C09F3F19F09F5F909331
:1047E000340610923B0610923C068091390618164A
:1047F00024F40E946605809339068091390687FF6C
:1048000005C00E94660581958093390680913A061D
:10481000181624F40E94660580933A0680913A06A1
:1048200087FF05C00E946605819580933A06309106
:1048300039063323B1F020913A06222391F045EB5B
:104840003403C0011124992309F4A6C190933906B9
:1048500045EB240390011124332309F4A1C13093C3
:104860003A060E9409068091320690913306909391
:1048700036068093350686E0FE013196A7E3B6E062
:1048800001900D928A95E1F780913B0690913C064C
:10489000892B09F468C080913006909131060E94FE
:1048A000EE059C0190913406992309F45BC32536EB
:1048B000310508F458C09F3F19F09F5F909334066C
:1048C0001092390610923A0680913B06181624F48D
:1048D0000E94440580933B0680913B0687FF05C0FC
:1048E0000E944405819580933B0680913C061816F2
:1048F00024F40E94440580933C0680913C0687FF87
:1049000005C00E944405819580933C0630913B068A
:104910003323B1F020913C06222391F045EB340380
:10492000C0011124992309F43FC190933B0645EB44
:10493000240390011124332309F43AC130933C0637
:104940000E940906809132069091330690933106B9
:104950008093300686E0FE013196A7E3B6E0019031
:104960000D928A95E1F70E94130890913D068917F0
:1049700031F00E94130880933D060E9473098091D4
:104980008606843009F019CE83E08093E900809197
:10499000E80082FF12CE8091E80090E085FF06C01B
:1049A0000E942603882309F407C191E08091E80062
:1049B0008B778093E800992309F4FFCDE981E150DA
:1049C000E33108F058C1F0E0EC55F64D0C9449285D
:1049D00092E0D1CD80918606843009F444C01092D3
:1049E000260688E190E020E40FB6F894A89580931D
:1049F00060000FBE2093600080E00E947309109257
:104A0000460680915806811117C081E080935806B0
:104A100080915206982F9170909357068E7F8093C5
:104A200052064FEF80E792E0415080409040E1F71E
:104A300000C000000E948F0B83B7817F846083BF1A
:104A400083B7816083BF7894889583B78E7F83BF57
:104A50000FB6F894A89580916000886180936000FB
:104A6000109260000FBE80917C06882309F4A5CDCA
:104A70000E94A50DE7E4F6E08191811147C2BE12C4
:104A8000FBCF9BCD9F5F990C943009F0AECD0F5FAB
:104A90001F4F0630110509F09DCD8FEF8AAF8BAF08
:104AA0001CAE0E94FD058160782F9EAF8DAF4AAD90
:104AB0005BAD6CAD8EAD0E94CF1FB4CD863059F486
:104AC000F0E0E352FB4FE4910E2F10E0B5E98B2E9E
:104AD000BDE09B2EC1CD893061F4E695F0E0E65251
:104AE000FB4FE4910E2F10E0A4EC8A2EABE09A2E3F
:104AF000B3CD8F3061F4E695F0E0E952FB4FE491DD
:104B00000E2F10E0FEEE8F2EFBE09F2EA5CD8531FF
:104B100059F4F0E0EC52FB4FE4910E2F10E0ECE57D
:104B20008E2EECE09E2E98CD08EE13E05AEA852EEC
:104B30005CE0952E883109F48FCD833241F4F60183
:104B40000591149178E2872E7DE0972E85CD04EFB4
:104B500011E04EED842E4CE0942E843209F47CCD8D
:104B600000ED17E031EC832E34E0932E853209F00E
:104B700073CD8E2F63E00E940728E92FF0E0E15308
:104B8000FB4FE4910E2F10E06BE1862E61E1962E33
:104B900063CD82E090E099CD81E08093390658CED4
:104BA00081E080933A065DCE81E080933B06BFCEE4
:104BB00081E080933C06C4CE00E210E0CE01019675
:104BC0004C018091E80085FD0AC08091E8008B7758
:104BD0008093E8000E942603882399F3E6CE809113
:104BE000F100F40181934F010150110951F7DDCE1D
:104BF0001A8289E08B832CC08A81823009F4A9C192
:104C00008330A1F08130B9F52FB7F89460914D064B
:104C100070914E0680914F06909150062FBF0E94D2
:104C20004F286B837C838D839E8312C080914706BF
:104C30008B83809148068C83809149068D83809177
:104C40004A068E8380914B068F8380914C0688871D
:104C5000CE0101960E948103B0CC8A81823059F442
:104C60006B817C818D819E810E944F2885E290E03E
:104C70000E94D328EDCF8FEF8983EACF4C816B81DF
:104C80008A810E94740E9827892798279E838D8396
:104C9000DFCF8D809E809824892498248A810B817F
:104CA000F8E00F9F8001112420E3829F000D111D69
:104CB00011248C8190E0880F991F080F191F692D0E
:104CC000C80186960E94D328682DC8018796D0CF48
:104CD0000E94A110BDCF8A818138C1F060F4803874
:104CE00009F0B6CF20E04B816091540680915306C5
:104CF0000E943B12ADCF823859F1833809F0A8CF1A
:104D000020E0409155066C818B81F2CF60E08B8171
:104D10000E941F169B8180915206911111C08E7FB7
:104D200080935206109246064FEF80E792E0415082
:104D300080409040E1F700C000000E948F0B88CFB8
:104D400081608093520660E086950E941F1680CF96
:104D50008B81809356067CCF8A81813899F030F41C
:104D6000803809F075CF8091550644CF823891F094
:104D7000833809F06DCF809153068B838091540660
:104D80008C8366CF8091520680FF02C0869532CF19
:104D900080E030CF809156062DCF60915206709101
:104DA000530680915406909155060E94071250CFE9
:104DB00080E18A834DCF82E08A838AE81BCF0A8113
:104DC0001B81102701271027FE0131963F018C809F
:104DD000CF01880D911D4C01C8018A589E4F68145F
:104DE000790409F435CF0A38E2E01E0750F40E9436
:104DF000BF28F30184830F5F1F4FFFEF6F1A7F0AF5
:104E0000EBCFF3011482F7CF0A811B811027012712
:104E10001027CE0101963C018C80800E912E911CB2
:104E2000C8018A589E4F0815190509F411CF0A3890
:104E3000E2E01E0720F4F30164810E94D328FFEF13
:104E40006F1A7F0A0F5F1F4FEBCF0E94F31000CF46
:104E500087E0AFCF0A811B81102701271027CE01E1
:104E600001963C018C80FC01E80DF11D4F01C80149
:104E700086968614970409F4EBCE0035F1E01F07FF
:104E800050F40E94BF28F30184830F5F1F4FFFEF90
:104E90006F1A7F0AECCFF3011482F7CF0A811B81CE
:104EA000102701271027CE0101963C018C80800E2F
:104EB000912E911CC80186968016910609F4C8CEE1
:104EC0000035E1E01E0720F4F30164810E94D3283D
:104ED000FFEF6F1A7F0A0F5F1F4FECCF80E00E9439
:104EE00003116FEF7FEF90E080E00E94F128B0CED9
:104EF000CE0101960E9481032FEF41EE84E0215004
:104F000040408040E1F700C00000B1CA80E189BDA7
:104F100082E189BD09B400FEFDCF8091D8008F7D6C
:104F20008093D8008091E00082608093E0008091BF
:104F3000E00081FDFCCF41CB60E085E290E00E9483
:104F4000D3280E94A1100E94F31081E00E94031157
:104F5000AECA85E290E00E94BF281B821C821D829F
:104F60008E8376CE2D32314008F0A7CCFCCC2D328A
:104F7000314008F033CC88CC78941F921FB61F9232
:104F800011248F939F93AF93BF9380914D0690917F
:104F90004E06A0914F06B09150060196A11DB11D7D
:104FA00080934D0690934E06A0934F06B093500603
:104FB000BF91AF919F918F911F901FBE1F90189529
:104FC0001F921FB61F9211248F939F93AF93BF938D
:104FD00080912606811113C080914D0690914E0656
:104FE000A0914F06B09150064196A11DB11D80932E
:104FF0004D0690934E06A0934F06B0935006BF9176
:10500000AF919F918F911F901FBE1F901895991B74
:1050100079E004C0991F961708F0961B881F7A95AF
:10502000C9F78095089587FB082E062687FD819590
:1050300067FD61950E9407280EF4919507FC819504
:105040000895AA1BBB1B51E107C0AA1FBB1FA617CF
:10505000B70710F0A61BB70B881F991F5A95A9F721
:1050600080959095BC01CD01089597FB072E16F40D
:10507000009407D077FD09D00E94212807FC05D0B5
:105080003EF4909581959F4F0895709561957F4F5F
:105090000895EE0FFF1F0590F491E02D0994692704
:1050A0009627692778278727782708958F929F92D8
:1050B000AF92BF92CF92DF92EF92FF92CF93DF93A6
:1050C000EC01688179818A819B8161157105810577
:1050D000910521F464E279ED8BE597E02DE133EF62
:1050E00041E050E00E94072949015A019B01AC01AF
:1050F000A7EAB1E40E9426296B017C01ACEEB4EF73
:10510000A50194010E943429DC01CB018C0D9D1D69
:10511000AE1DBF1DB7FF03C00197A109B04888832A
:105120009983AA83BB839F77DF91CF91FF90EF9004
:10513000DF90CF90BF90AF909F908F9008950E9486
:105140005628089580E091E00E9456280895B0E026
:10515000A0E08093000190930101A0930201B0931D
:1051600003010895FC014150504030F001900616B3
:10517000D1F73197CF010895882799270895F99994
:10518000FECF92BD81BDF89A992780B50895A6E11A
:10519000B0E044E050E00C94F928A8E1B0E042E02F
:1051A00050E00C94F928262FF999FECF92BD81BDCD
:1051B000F89A019700B4021639F01FBA20BD0FB655
:1051C000F894FA9AF99A0FBE08950396272F0E9431
:1051D000D4280E94D328252F0E94D428242F0C9451
:1051E000D4280196272F0E94D4280C94D328DC01C0
:1051F000CB01FC01F999FECF06C0F2BDE1BDF89AE2
:10520000319600B40D9241505040B8F70895052EE4
:1052100097FB1EF400940E941E2957FD07D00E94A0
:10522000392907FC03D04EF40C941E295095409563
:10523000309521953F4F4F4F5F4F08959095809542
:10524000709561957F4F8F4F9F4F08950E945B2906
:10525000A59F900DB49F900DA49F800D911D1124CA
:105260000895B7FF0C9426290E942629821B930BD0
:105270000895A1E21A2EAA1BBB1BFD010DC0AA1F97
:10528000BB1FEE1FFF1FA217B307E407F50720F0AF
:10529000A21BB30BE40BF50B661F771F881F991F2A
:1052A0001A9469F760957095809590959B01AC0173
:1052B000BD01CF010895A29FB001B39FC001A39F7C
:1052C000700D811D1124911DB29F700D811D11243F
:1052D000911D0895F894FFCF8C108C1095109510A7
:1052E00097109510951095108C108C109C1095109F
:1052F00095109C101C14441497144414971477149C
:10530000AF149714B715C415391B391BAA1BAA1B58
:10531000001C1A1C6E1B6E1B251CFB1C0A1D0A1D83
:10532000601A871A8E1A931A981A9D1AA21AA71A27
:10533000AC1AB11AB61ABB1ABE1AC31AC61AC91ABF
:10534000CC1ACF1AD21AD51AF825FC252D263E26BE
:10535000492668266B26AC26CD266E277827D826C8
:0E536000DB26DF260427252728272A274E27AD
:10536E000100000001191A1B1C1D1E1F2021220105
:10537E0002BC05C202C204F909CE09CA09B8090164
:10538E000001020202020606060909090909090FAF
:10539E000F0F0F0F0F1515151819191919191919AE
:1053AE001919192324252525252525818283E20017
:1053BE00E900EA00B500B600B700CD008301CC00CD
:1053CE008A0192019401210223022402250226025F
:1053DE0027022A02B300B4006F007000F034353695
:1053EE006667F6F7939600FF0100010000FFFF00CD
:1053FE0000010001FF004022BC8A016801AC00F6EA
:06540E00040F052F05004C
:00000001FF
